:020000040800F2
:100000000040002075240008052400080F24000883
:1000100000000000000000000000000000000000E0
:10002000000000000000000000000000152400088F
:1000300000000000000000001F2400082924000820
:10004000C5240008C5240008C5240008C5240008EC
:10005000C5240008C5240008C5240008C5240008DC
:10006000C5240008C5240008C5240008C5240008CC
:1000700039240008C5240008C5240008C524000848
:10008000C5240008C5240008C5240008C5240008AC
:10009000C5240008C5240008C5240008C52400089C
:1000A000C5240008C5240008C5240008C52400088C
:1000B000C5240008C5240008C524000851240008F0
:1000C00010B5064C2378002B07D1054B002B02D02E
:1000D000044800E000BF0123237010BDD8000020B9
:1000E00000000000D8A80008044B10B5002B03D076
:1000F0000349044800E000BF10BDC04600000000F6
:10010000DC000020D8A800080023C25C0133002ACC
:10011000FBD1581E70470000002243088B4274D365
:1001200003098B425FD3030A8B4244D3030B8B42F8
:1001300028D3030C8B420DD3FF22090212BA030C01
:100140008B4202D31212090265D0030B8B4219D3E2
:1001500000E0090AC30B8B4201D3CB03C01A524102
:10016000830B8B4201D38B03C01A5241430B8B424A
:1001700001D34B03C01A5241030B8B4201D30B0333
:10018000C01A5241C30A8B4201D3CB02C01A52415A
:10019000830A8B4201D38B02C01A5241430A8B421D
:1001A00001D34B02C01A5241030A8B4201D30B0206
:1001B000C01A5241CDD2C3098B4201D3CB01C01A20
:1001C000524183098B4201D38B01C01A524143092A
:1001D0008B4201D34B01C01A524103098B4201D318
:1001E0000B01C01A5241C3088B4201D3CB00C01A85
:1001F000524183088B4201D38B00C01A52414308FD
:100200008B4201D34B00C01A5241411A00D2014621
:10021000524110467047FFE701B5002000F006F894
:1002200002BDC0460029F7D076E770477047C04648
:100230009E2110B5C905041C00F08CFC002803D1D8
:10024000201C00F0FBFB10BD9E21201CC90500F006
:100250002DFA00F0F3FB80231B069C466044F2E776
:10026000F0B54F464646D6464502C0B547000C1C81
:100270006D0A3F0EC60F002F66D0FF2F6CD00023F3
:10028000EA00802599469A46ED0415437F3F6002B7
:100290006100430A9846090EE40F002948D0FF295F
:1002A00010D08022D800D2040243904600207F392B
:1002B0004A4633007F1A02436C4992008A586340D1
:1002C000DBB29746002B6DD10220FF3F33E00023C5
:1002D00098462600454682465346022B00D17FE0D1
:1002E000032B00D194E0012B17D038007F30002879
:1002F0005FDD6B0704D00F232B40042B00D00435A7
:100300002B0103D538005A4B80301D40FE2867DC96
:10031000AD016D0AC0B202E01E0000200025C0053C
:100320002843F6073043E0BCBA46B146A846F0BDC4
:10033000002B2BD101204A4633004E490243920044
:100340008A586340DBB29746002D13D104239946A7
:10035000033B00279A469AE7002D05D108239946CA
:10036000063BFF279A4692E70C239946093BFF2755
:100370009A468CE7280000F0F7FB7627431F9D4044
:1003800000237F4299469A463F1A80E7180000F002
:10039000EBFB4246431F76219A404942091A904698
:1003A000002085E7FF21032082E71E00FF200025B3
:1003B000B5E701231B1A1B2BAFDC9E372900BD407C
:1003C000D9406A1E95410D436B0704D00F232B4083
:1003D000042B00D004356B0144D5012000259EE795
:1003E000FF2000259BE780250026FF20ED0396E7F0
:1003F000002398468020C003054209D043460342AB
:1004000006D1454605436D022600FF206D0A86E7AA
:100410008020C00305436D02FF206D0A7FE741463F
:100420006A014801824219D21B210025013F0126A1
:1004300014006D005200002C01DB904201D8121A0A
:10044000354301390029F3D1501E824138007F30F5
:100450001E001543002800DD4BE7AAE71A210125FD
:10046000121AE4E7AD0100206D0A58E724AA00083B
:10047000FFFFFFF764AA0008F8B557464E46454609
:10048000DE464402E0B545000F1C640A2D0EC60F7F
:10049000002D47D0FF2D4DD0002380209A469B464B
:1004A000E400C00404437F3D7802430A99467A0081
:1004B000FB0F9846120E4B4644D0FF2A11D0D800AD
:1004C0008023DB040343994600207F3AAD1847465A
:1004D00053467740691C0F2B3FD8724A9B00D35874
:1004E0009F46FF35002B00D079E0524602231A4385
:1004F00092460220EBE747464C4683465B46022B7A
:1005000028D0032B00D1C6E0012B4FD100200024BE
:10051000C005FF0720433843F0BCBB46B246A9469E
:10052000A046F8BD002C71D104239A46033B002558
:100530009B46B9E7002C63D108239A46063BFF256A
:100540009B46B1E7002B50D1524601331A439246E5
:100550000120BCE7FF200024DAE74846260C2404EB
:10056000220C0404240C4B4620001B0C5043744303
:100570005A435E431219030C9B189C4203D98022F4
:1005800052029446664400041A04000C12189401A6
:10059000601E84411B0C920E9B1914439B011C434B
:1005A0001B0172D50120630804401C4308007F3002
:1005B00000283CDD630704D00F232340042B00D028
:1005C0000434230103D580310800374B1C40FE283A
:1005D000C0DCA401640AC0B29AE737008EE7524635
:1005E00003231A439246032071E7484600F0BCFA01
:1005F0004A46431F9A402D1A91460020763D66E7F1
:100600000C239A46093BFF259B464DE7200000F04E
:10061000ABFA7625431F9C4000236D429A469B46C9
:100620002D1A41E780240027FF20E40370E701230F
:100630001B1A1B2B00DD69E79E3120008C40D8403F
:10064000631E9C410443630704D00F232340042B03
:1006500000D0043463011AD50120002458E780201B
:10066000C003044209D04B46034206D14C46044322
:1006700064024746FF20640A4AE78020C00304431F
:1006800064023700FF20640A42E729008EE7A401D4
:100690000020640A3CE78020C00304436402FF207A
:1006A000640A35E7A4AA0008FFFFFFF7F0B5464645
:1006B000D6464F4643025B0ADA0094464A02C0B56A
:1006C0004400560A051CB046240E4E0092091F0035
:1006D00020009246ED0F360EC90FFF2E00D17FE0AD
:1006E000012251408D4251D0A21B9146002A00DCCC
:1006F0007EE0002E00D199E0FF2C00D18CE0802319
:100700005246DB041A4392464A4601231B2A08DC60
:1007100053462021D340891A52468A40511E8A41AD
:1007200013436246D31A5A0100D4F3E09B019E0999
:10073000300000F019FA05388640844200DDF7E009
:100740003200041B20200134E240041BA640330089
:100750005E1EB341002413435A0704D00F221A40EF
:10076000042A00D004335A0100D4D6E0621CFE2CC7
:1007700000D1DAE09B015F0AD0B2C0053843ED0733
:100780002843E0BCBA46B146A846F0BDA21B91463C
:10079000002A63DD002E00D199E0FF2C3CD080239D
:1007A0005246DB041A4392464A4601231B2A08DCC0
:1007B00053462021D340891A52468A40511E8A410D
:1007C000134363445A0100D4A4E00134FF2C00D148
:1007D000ABE0012297491A405B080B401343BBE78B
:1007E000002A32D08D4235D0FF2252429146A14498
:1007F0004A46002A51D0301B002C00D09CE06346B2
:10080000002B00D1DFE00138002800D1F7E0FF2EF7
:1008100000D099E00D004346002B00D185E08027F1
:10082000FF031F437F02FF207F0AA6E75246002AEC
:1008300074D0012252429046C1444A46002A00D157
:10084000C8E0FF2C00D05FE7E6E701225140A94253
:1008500000D049E7FF2252429146A1444A46002A6D
:1008600043D0311B002C00D18CE0FF2E00D192E050
:1008700080236246DB041A43944601231B2909DCCA
:10088000202063466246CB40411A8A401100481E30
:1008900081410B433400534494E7FE22661C3242EC
:1008A00064D1002C00D082E06346002B00D1ABE085
:1008B0005346002B00D160E7634652469B1A5A010B
:1008C00000D4AAE0634652460D00D31A44E75246CC
:1008D000002A23D0012252429046C1444A46002AAF
:1008E00075D0FF2C00D05FE796E7FE260134264244
:1008F00053D1002872D16346002B00D193E05346B8
:10090000002B00D139E7634400245A0102D54A4A3A
:10091000013413405A0700D020E7DB08FF2C00D138
:100920007AE75B025F0AE0B227E7FF20002724E7AF
:10093000414B241A33400FE7FF2E00D16AE7802392
:100940006246DB041A43944601231B2809DC202459
:1009500063466246C340201A82401000441EA041F4
:10096000034352460D003400D31ADCE66346524678
:100970009E1A730117D4002E00D0D9E6002500205E
:100980000027FAE66346002B44D0013900294CD0F9
:10099000FF2E00D071E743463EE7FF2CC5D05246FC
:1009A00062445308B6E763460D00D61AC0E66246B5
:1009B000002A16D15346002B00D02BE780270025B4
:1009C000FF20FF03D9E60D0043463400A6E7534657
:1009D0006344F7E6634652469B1AA4E66246002A41
:1009E000D9D05246002A00D116E78022D203134202
:1009F00000D111E74046104200D00DE70AE7524609
:100A00000D003400D31A8EE65346002B08D00D009B
:100A10004746B2E64346340080E7002B00D079E732
:100A200000250027A9E64746A7E65346340063445D
:100A3000C8E6C046FFFFFF7DFFFFFFFB410242000B
:100A4000C30F490A0020120E7E2A03D99D2A02D91B
:100A5000094A98187047802000040143952A07DC52
:100A60009620821AD1404842002BF3D10800F1E7CA
:100A7000963A9140F7E7C046FFFFFF7F70B5051E2D
:100A80000ED000F071F89E2304001B1A962B0CDC8C
:100A9000082801DD083CA5406D026D0AD8B201E0CE
:100AA00000200025C005284370BD992B09DD0200F8
:100AB00029001B3291404A1E91410522121AD5404D
:100AC0000D43052C01DD621F95402900084E314081
:100AD0006A0709D00F202840042805D004314A01B4
:100AE00002D59F2331401B1B89014D0AD8B2D9E79B
:100AF000FFFFFFFB8446081C6146FFE71FB500F0BF
:100B0000C5F8002801D40021C8421FBD10B500F06F
:100B100049F84042013010BD10B500F0B7F8002888
:100B200001DB002010BD012010BDC04610B500F053
:100B3000ADF8002801DD002010BD012010BDC04629
:100B400010B500F057F8002801DC002010BD01208E
:100B500010BDC04610B500F04DF8002801DA0020A5
:100B600010BD012010BDC0461C2101231B0498426A
:100B700001D3000C10391B0A984201D3000A08392E
:100B80001B09984201D30009043902A2105C4018E5
:100B90007047C04604030202010101010000000089
:100BA0000000000070B542004E024C0045026D0A84
:100BB000120EC30F760A240EC90FFF2A0FD0FF2C86
:100BC00011D00120A24200D070BDB542FCD18B42B1
:100BD0000DD0002AF8D12800451EA841F4E70120D5
:100BE000002DF1D1EBE70120002EEDD1E9E7002047
:100BF000EAE7C046F0B5420046024D024C00C30F82
:100C0000760A120E6D0A240EC80FFF2A1FD0FF2C81
:100C100010D0002A1FD171427141002C01D1002D4A
:100C20001ED000290ED183421ED00221581E08403A
:100C30000138F0BD002D26D1002AF4D17142714156
:100C40000029F0D00028F4D101204042F1E7002E25
:100C500019D1FF2CEED0002CE5D1002DE3D1E4E733
:100C60000020002EE5D0E0E7A24205DCEADBAE4240
:100C700002D8E7D30020DCE741424141484202214B
:100C800008400138D5E702204042D2E7F0B54200E3
:100C900046024D024C00C30F760A120E6D0A240E56
:100CA000C80FFF2A0DD0FF2C0FD0002A23D171428C
:100CB0007141002C0FD1002D0DD10020002E14D039
:100CC0000DE0002E10D1FF2C15D1002D0CD1002AE3
:100CD00003D171427141002908D1834210D0022111
:100CE000581E0840013800E00220F0BD0028FCD169
:100CF00001204042F9E7002CEFD1002DEDD1EEE7C5
:100D0000A24205DCF2DBAE4202D8EFD30020ECE7D2
:100D1000414241414842022108400138E5E7C046CE
:100D2000B0B5AAB000AF39601100FB1D021C1A70EB
:100D3000BB1D0A1C1A70FB1D1B782F4A9446634486
:100D4000DB02A0243A19136020257B198022FF21A1
:100D5000180009F0A0FDBB1D1A7839687B1918002E
:100D600009F090FD02F092F80C217B1800221A6025
:100D70007B183A1912685A607B1801229A60002386
:100D8000BB600823FA187B181100180002F03EF926
:100D9000A723FB1800221A7022E0A7243B191B7816
:100DA0009B011A00A0257B191B689B187A191360F8
:100DB0003B191B78DB002022BA18D1181823FB1826
:100DC0000822180009F05EFDBA69FB697919096803
:100DD000032001F0C5FF3B191A783B1901321A7044
:100DE000A723FB181B780F2BD7D902F075F8002327
:100DF0001800BD462AB0B0BD1A00010090B5A7B0DA
:100E000000AF786008001100FB1C021C1A70BB1CAC
:100E10000A1C1A70FB1C1B78224A94466344DB02AE
:100E20009022BA1813601023FB188022FF211800AB
:100E300009F031FD9723FB1800221A7020E097215A
:100E40007B181B789B001A0090203B181B689B188E
:100E50003A1813603B181B681B68FB600C007B187A
:100E60001B789B001022BA18D3180C22B918042240
:100E7000180009F007FD3B191A783B1901321A7066
:100E80009723FB181B781F2BD9D9BB1C1A7810236A
:100E9000F9187B68180009F0F5FC00231800BD461E
:100EA00027B090BD1A00010090B589B000AF7860FE
:100EB0000A00BB1C1A800C243B19180014231A00CA
:100EC000002109F0E8FCBB1C1A8821007B181A607D
:100ED0007B1801225A607B1800229A607B1803223B
:100EE000DA607A187B681100180002F03BF9C046FE
:100EF000BD4609B090BD90B589B000AF78600A00DA
:100F0000BB1C1A800C243B19180014231A00002162
:100F100009F0C1FCBB1C1A883B191A603B1900225E
:100F20005A603B1902229A603A197B681100180036
:100F300002F018F9C046BD4609B090BD80B500AFBB
:100F4000294B180004F060FF284B002201211800F3
:100F500002F09DFA80239B0124480122190002F02F
:100F600096FA224B00220421180002F090FA802306
:100F7000DB001E480122190002F089FA80231B01C0
:100F80001A480122190002F082FA80235B011748F7
:100F90000122190002F07BFA00F081FE192001F015
:100FA000F7FA00F0FDFE192001F0F2FA01F048F81E
:100FB0000F4B202202211800FFF720FF0C4B19785D
:100FC0000B4B5A780A4B9B78082000F0A7FF084B80
:100FD000D978074B1A79064B5B790C2000F09EFFFD
:100FE000C046BD4680BDC046F8030020000400484E
:100FF0008401002080B582B000AF0A4B7B607A6824
:10100000094B1100180009F04EFC7B681800FFF72F
:101010007BF80300DAB2054B1A70C046BD4602B039
:1010200080BDC046F0A8000800010020800100201B
:1010300080B582B000AF0A4B7B607A68094B110023
:10104000180009F030FC7B681800FFF75DF803001A
:10105000DAB2054B1A70C046BD4602B080BDC0462C
:10106000F4A80008000100208001002080B500AF36
:1010700080239B0104480022190002F008FAFFF7C0
:10108000D7FFC046BD4680BD0004004880B500AF14
:1010900080239B0104480122190002F0F8F9FFF7B0
:1010A000C7FFC046BD4680BD0004004880B500AF04
:1010B000054B00220121180002F0E9F9FFF7B8FF03
:1010C000C046BD4680BDC0460004004880B500AFA4
:1010D000054B01220121180002F0D9F9FFF7A8FF02
:1010E000C046BD4680BDC0460004004880B500AF84
:1010F000114B00220421180002F0C9F90A2001F066
:1011000047FA8023DB000C480122190002F0BFF9E6
:1011100080231B0108480122190002F0B8F980233E
:101120005B0105480122190002F0B1F9FFF780FFC9
:10113000C046BD4680BDC0460004004880B500AF33
:101140008023DB0010480022190002F0A0F90A20D9
:1011500001F01EFA0C4B01220421180002F097F94D
:1011600080231B0108480122190002F090F9802316
:101170005B0105480122190002F089F9FFF758FFC9
:10118000C046BD4680BDC0460004004880B500AFE3
:1011900080231B0110480022190002F078F90A2070
:1011A00001F0F6F90C4B01220421180002F06FF94E
:1011B0008023DB0008480122190002F068F980232F
:1011C0005B0105480122190002F061F9FFF730FFC9
:1011D000C046BD4680BDC0460004004880B500AF93
:1011E00080235B0110480022190002F050F90A2008
:1011F00001F0CEF90C4B01220421180002F047F94E
:101200008023DB0008480122190002F040F9802306
:101210001B0105480122190002F039F9FFF708FF08
:10122000C046BD4680BDC0460004004880B582B0BF
:1012300000AF78607B6819787B6801331A787B6827
:1012400002331B78002000F069FEFFF7F1FEC04674
:10125000BD4602B080BD80B582B000AF00F000FF97
:10126000FA235B00180001F093F93A0001323B00C9
:1012700002333900082000F09CFE390003313A00A7
:1012800004323B0005330C2000F093FE3B000622A5
:1012900019000220FFF744FDFFF7CAFEC046BD4615
:1012A00002B080BD80B584B000AF3B1D180000F0D7
:1012B00022FD031E0BD0104B06221A700E4B1B781A
:1012C0001A00391D0D4B180009F0DCFA0FE00C4B29
:1012D000FB60FA68094B1100180009F0E4FAFB689A
:1012E0001800FEF711FF0300DAB2034B1A70C04674
:1012F000BD4604B080BDC046800100200001002032
:10130000F8A8000880B500AF094B20220121180081
:10131000FFF774FD074B06221A70064B1B781A0064
:101320000349054B180009F0ADFAC046BD4680BD23
:1013300084010020800100200001002080B582B0DF
:1013400000AF78607B68062219000120FFF7E8FCF7
:10135000C046BD4602B080BD80B500AF094B20221B
:1013600003211800FFF74AFD074B08221A70064BAD
:101370001B781A000349054B180009F083FAC04690
:10138000BD4680BD840100208001002000010020B6
:1013900080B582B000AF78607B6808221900032016
:1013A000FFF7BEFCFFF744FEC046BD4602B080BD5D
:1013B00080B500AF094B202202211800FFF71EFD67
:1013C000074B06221A70064B1B781A000349054B7F
:1013D000180009F057FAC046BD4680BD84010020C0
:1013E000800100200001002080B582B000AF78604D
:1013F0007B68062219000220FFF792FC7B681978AF
:101400007B6801331A787B6802331B78082000F070
:1014100085FD7B68033319787B6804331A787B6811
:1014200005331B780C2000F079FDFFF701FEC04664
:10143000BD4602B080BD80B500AFC046BD4680BD90
:1014400080B500AF9A4B1B78072B0BD1994B1B68CB
:1014500099490722180009F02EFA031E02D1FFF75E
:1014600005FE22E1924B1B78082B0BD1914B1B6898
:1014700092490822180009F01EFA031E02D1FFF754
:1014800005FE12E18A4B1B780E2B0BD1894B1B6892
:101490008B490E22180009F00EFA031E02D1FFF745
:1014A00005FE02E1824B1B780D2B0BD1814B1B6893
:1014B00084490D22180009F0FEF9031E02D1FFF73E
:1014C00005FEF2E07A4B1B78072B0BD1794B1B689A
:1014D0007D490722180009F0EEF9031E02D1FFF73B
:1014E00005FEE2E0724B1B78072B0BD1714B1B689A
:1014F00076490722180009F0DEF9031E02D1FFF732
:101500001DFED2E06A4B1B78072B0BD1694B1B6881
:101510006F490722180009F0CEF9031E02D1FFF728
:1015200035FEC2E0624B1B78072B0BD1614B1B6869
:1015300068490722180009F0BEF9031E02D1FFF71F
:101540004DFEB2E05A4B1B780A2B0FD1594B1B684A
:1015500061490722180009F0AEF9031E06D1554B68
:101560001B6807331800FFF761FE9EE0504B1B78A5
:10157000062B0BD14F4B1B6858490622180009F067
:101580009AF9031E02D1FFF766FE8EE0484B1B78E6
:10159000072B0BD1474B1B6851490722180009F054
:1015A0008AF9031E02D1FFF77DFE7EE0404B1B78D7
:1015B0000A2B0BD13F4B1B684A490A22180009F03D
:1015C0007AF9031E02D1FFF79DFE6EE0384B1B78BF
:1015D000112B0FD1374B1B6843490B22180009F020
:1015E0006AF9031E06D1334B1B680B331800FFF753
:1015F000A5FE5AE02E4B1B78092B0BD12D4B1B68F7
:101600003A490922180009F056F9031E02D1FFF7E2
:10161000CFFE4AE0264B1B78102B0FD1254B1B68C1
:1016200033490A22180009F046F9031E06D1214B5E
:101630001B680A331800FFF7D7FE36E01C4B1B78F7
:101640000C2B0BD11B4B1B682A490C22180009F0EC
:1016500032F9031E02D1FFF77FFE26E0144B1B7800
:10166000152B0FD1134B1B6823490D22180009F0CD
:1016700022F9031E06D10F4B1B680D331800FFF72C
:1016800087FE12E00A4B1B78152B0BD1094B1B6808
:101690001A490B22180009F00EF9031E02D1FFF7B8
:1016A000CAFE02E0FFF7A6FCC046C046BD4680BDAC
:1016B000FC000020F800002000A9000808A900088C
:1016C00014A9000824A9000834A900083CA90008AE
:1016D00044A900084CA9000854A900085CA9000806
:1016E00064A900086CA9000878A9000884A900086A
:1016F00090A900089CA90008ACA90008BCA9000892
:1017000080B584B000AF78607B68180001F0A4F861
:1017100002002D4B1A602C4B1B681800FFF7AEF926
:10172000031C2A49181CFEF79BFD031C2849181CA2
:10173000FEF7A2FE031C2749181CFEF7B7FF031C87
:10174000FB602449F868FEF78BFD031C2249181C36
:10175000FEF792FE031C181CFEF76AFD02001A4BEE
:101760001A601E4B1B78002B11D1174B1B681B0CEA
:10177000DAB21B4B1A70144B1B681B0ADAB2184BF7
:101780005A70114B1B68DAB2154B9A7014E0134B68
:101790001B78012B10D10C4B1B681B0CDAB2104BC1
:1017A000DA70094B1B681B0ADAB20D4B1A71064B33
:1017B0001B68DAB20A4B5A710A4B01221A70C046F2
:1017C000BD4604B080BDC046A401002000F07F45A6
:1017D0003D0A47407B141E400400004A00000020E0
:1017E000400400200100002080B582B000AF00233B
:1017F0007B6000F02BF90D4B0021180001F064FA1A
:101800000B4B01220221180001F041FE094B01227D
:101810001A70094B7B607B6804480022002101F0AC
:10182000F0F9C046BD4602B080BDC046CC030020E2
:1018300000040048F4000020AC0C000080B500AFAC
:1018400000F042FE00F060F800F086F908F0AAFA15
:1018500000F02AF900F0B4F8FFF770FBFFF7C4FFBF
:10186000204B02221A701F4BFA2292005A801D4B05
:1018700000221A711B4B1C4ADA801A4BFA225200C2
:101880001A81184BFA2252005A81164BFA22520042
:101890009A81144B1422DA81124B64221A82114B62
:1018A000C8225A820F4B32229A820E4B0A22DA82C7
:1018B0000E4B1B78012BFBD10C4B00221A700C4BEA
:1018C0001A780C4B1A700C4B0C4A1A60FFF7B8FDD3
:1018D0000B4B1B789AB20B4B1100180008F0F2FA70
:1018E000E6E7C046E0030020B80B0000A901002095
:1018F000AA010020FC000020F8000020740700204E
:10190000800100200001002090B599B000AF2C2488
:101910003B19180034231A00002108F0BCFF1C23D7
:10192000FB18180010231A00002108F0B4FF3B0038
:1019300018001C231A00002108F0ADFF21007B18BD
:1019400030221A607B1801221A627B1801225A6128
:101950007B1810229A617B1800225A627B181800AB
:1019600003F024FC031E01D000F094F91C217B1825
:1019700007221A607B1803225A607B1800229A60A3
:101980007B180022DA607B180121180003F094FF15
:10199000031E01D000F07EF93B00802292021A6003
:1019A0003B0000229A613B00180004F0DFF8031EA0
:1019B00001D000F06FF9C046BD4619B090BD0000DF
:1019C00080B584B000AF3B1D18000C231A00002125
:1019D00008F061FF1B4B1C4A1A601A4B00225A6028
:1019E000184B00229A60174B0022DA60154B012237
:1019F0001A61144B04225A61124B00221A76114BC1
:101A000000225A760F4B00229A760E4B0022DA768D
:101A10000C4BC222FF32DA610A4B00221A62094BD8
:101A2000242200219954074B01229A62054B180089
:101A300000F0D2FD031E01D000F02CF9C046BD46D7
:101A400004B080BD480400200024014080B582B06D
:101A500000AF3B00180008231A00002108F01BFF0C
:101A60000F4B104A1A600E4B180001F0A7F8031E26
:101A700001D000F00FF93B0000221A603B00002269
:101A80005A603900064B0022180001F0DDF8031EF1
:101A900001D000F0FFF8C046BD4602B080BDC04690
:101AA000CC0300200074004080B586B000AF08234E
:101AB000FB18180010231A00002108F0ECFE3B0070
:101AC000180008231A00002108F0E5FE1F4B204AE9
:101AD0001A601E4B00225A601C4B00229A601B4B5E
:101AE0001C4ADA60194B00221A61184B00225A6115
:101AF000164B00229A61154B180004F035F9031EAD
:101B000001D000F0C7F808217B18802252011A602A
:101B10007A180E4B1100180004F0C0F9031E01D012
:101B200000F0B8F83B0000221A603B0000225A6027
:101B30003A00064B1100180004F09EFB031E01D072
:101B400000F0A8F8C046BD4606B080BDF8030020EE
:101B5000002C0140FEFF000090B589B000AF0C24BE
:101B60003B19180014231A00002108F094FE454B7D
:101B70005A69444B8021C9030A435A61414B5A694F
:101B80008023DB031340BB60BB683E4B5A693D4B6F
:101B9000802189020A435A613A4B5A6980239B0289
:101BA00013407B607B68374B5A69364B8021C902F2
:101BB0000A435A61334B5A698023DB0213403B606E
:101BC0003B689023DB0501220321180001F05FFC34
:101BD0009023DB0500223021180001F058FC2A492F
:101BE0002A4B0022180001F052FC3B1933221A60E4
:101BF0003B1901225A603B1900229A603B190022CE
:101C0000DA603A199023DB051100180001F0AAFAF6
:101C10003B190C221A603B1900225A603B19012221
:101C20009A603A199023DB051100180001F09AFA26
:101C30003B19174A1A603B1901225A603B190022CE
:101C40009A603B190022DA603B19104A1900100013
:101C500001F088FA21007B1802221A607B18012209
:101C60005A607B1802229A607B180022DA607B1887
:101C7000064A1900100001F075FAC046BD4609B0C9
:101C800090BDC04600100240073C00000004004820
:101C9000053C000080B500AFC046BD4680BD80B5A4
:101CA00000AF9023DB0501220121180001F0EFFBBA
:101CB0009023DB0501220221180001F0E8FB9023AC
:101CC000DB0501211800FFF7EFF89023DB05022167
:101CD0001800FFF7E9F89023DB0520211800FFF733
:101CE000E3F89023DB0500222021180001F0CFFB50
:101CF000C046BD4680BD90B585B000AF78600F246A
:101D00003B1900221A709023DB05002202211800E3
:101D100001F0BDFB00F07AFA9023DB0504211800E6
:101D200001F098FB031E2BD17B68DA1C7B68110045
:101D3000180000F09FF97B685A1C7B680433190077
:101D4000100000F097F97B689A1C7B680533190036
:101D5000100000F08FF93B1901221A709023DB0567
:101D600001220221180001F092FB00F04FFA9023AB
:101D7000DB0500220221180001F089FB00F046FA81
:101D80009023DB0501220221180001F080FB00F006
:101D90003DFA0F23FB181B781800BD4605B090BD17
:101DA00080B500AF9023DB0500220121180001F06F
:101DB0006EFB00F02BFA9023DB0501222021180096
:101DC00001F065FBFA231B01180000F029FA2D4BE6
:101DD000180000F025FA2B4B180000F021FA902390
:101DE000DB0500222021180001F051FBAF239B00EE
:101DF000180000F015FA9023DB05012220211800BD
:101E000001F045FB204B180000F00AFA1F4B1800A8
:101E100000F006FA1D4B180000F002FA9023DB05D3
:101E200000222021180001F032FBAF239B00180094
:101E300000F0F6F99023DB0501222021180001F0C3
:101E400026FB134B180000F0EBF9114B180000F0C3
:101E5000E7F9104B180000F0E3F99023DB050022AE
:101E60002021180001F013FB00F0D0F99023DB05CE
:101E700001220121180001F00AFB00F0C7F9C04659
:101E8000BD4680BD9411000088130000102700009B
:101E9000204E0000B80B000090B583B000AF0400E6
:101EA00008001100FB1D221C1A70BB1D021C1A70B9
:101EB0007B1D0A1C1A709023DB05002201211800EB
:101EC00001F0E5FA00F0A2F99023DB0510211800DB
:101ED000FEF7EAFFFB1D1B782033DBB2180000F091
:101EE00054F9BB1D1B78180000F04FF97B1D1B78BF
:101EF000180000F04AF99023DB0510211800FEF7C6
:101F0000FAFF9023DB0501220121180001F0BFFA3E
:101F100000F07CF9C046BD4603B090BDB0B582B0BC
:101F200000AF05000C0010001900FB1D2A1C1A70E0
:101F3000BB1D221C1A707B1D021C1A703B1D0A1C43
:101F40001A709023DB0500220121180001F09FFA8E
:101F500000F05CF99023DB0510211800FEF7A4FFC8
:101F6000FB1D1B784033DBB2180000F00EF9BB1DDF
:101F70001B78180000F009F97B1D1B78180000F091
:101F800004F93B1D1B78180000F0FFF89023DB05D7
:101F900010211800FEF7AFFF9023DB05012201217D
:101FA000180001F074FA00F031F9C046BD4602B0E5
:101FB000B0BD90B585B000AFB9607A603B600F24CA
:101FC0003B19021C1A709023DB0500220121180026
:101FD00001F05DFA00F01AF99023DB0510211800DA
:101FE000FEF762FF3B191B78403BDBB2180000F0A4
:101FF000CCF89023DB0510211800FEF77CFF00F0E1
:1020000005F900F08FF803001A00BB681A7000F0A1
:1020100089F803001A007B681A7000F083F8030047
:102020001A003B681A709023DB0501220121180079
:1020300001F02DFA00F0EAF8C046BD4605B090BDAB
:1020400080B500AFA02220210420FFF725FF002348
:10205000002280210020FFF761FFC046BD4680BD01
:1020600080B500AFA12220210420FFF715FFC04654
:10207000BD4680BD80B584B000AF786039607B68B4
:1020800000221A703B6800221A700F23FB180822E6
:102090001A7000F0A4F87B681B78DB18DAB27B6852
:1020A0001A703B681B78DB18DAB23B681A707B68E1
:1020B0001B7801229343DAB27B681A703B681B7865
:1020C00001229343DAB23B681A709023DB050421A6
:1020D000180001F0BFF9031E06D07B681B780122AF
:1020E0001343DAB27B681A709023DB0508211800CD
:1020F00001F0B0F9031E06D03B681B7801221343A0
:10210000DAB23B681A700F217B187A181278013AFC
:102110001A707B181B78002BBBD1C046C046BD4649
:1021200004B080BD80B582B000AFFB1D00221A70E4
:10213000BB1D08221A7000F052F8FA1DFB1D1B7817
:10214000DB181370FB1DFA1D127801218A431A70E7
:102150009023DB051021180001F07CF9031E05D047
:10216000FB1DFA1D127801210A431A70BB1DBA1D0E
:102170001278013A1A70BB1D1B78002BDBD1FB1DB6
:102180001B781800BD4602B080BD80B584B000AF9A
:102190000200FB1D1A700F23FB1808221A70FB1D8A
:1021A0001B78DB09DAB29023DB051021180001F05F
:1021B0006EF900F014F8FA1DFB1D1B78DB18137084
:1021C0000F217B187A181278013A1A707B181B7845
:1021D000002BE4D1C046C046BD4604B080BD80B5EA
:1021E00000AF9023DB0501222021180001F04FF9F8
:1021F00000F00CF89023DB0500222021180001F0EC
:1022000046F900F003F8C046BD4680BD80B500AF7A
:10221000AF239B00180000F003F8C046BD4680BD08
:1022200080B582B000AF0200BB1D1A80084B1B684E
:1022300000225A62C046064B1B685A6ABB1D1B88A7
:102240009A42F8D3C046C046BD4602B080BDC046E3
:10225000F803002080B582B000AF0F4B9A690E4B97
:1022600001210A439A610C4B9B69012213407B6058
:102270007B68094BDA69084B802149050A43DA611A
:10228000054BDA6980235B0513403B603B68C04621
:10229000BD4602B080BDC0460010024090B58BB074
:1022A00000AF786014243B19180014231A00002191
:1022B00008F0F1FA7B681B681D4A934233D11D4B2D
:1022C0009A691C4B802189000A439A61194B9A69CB
:1022D00080239B0013403B613B69164B5A69154BA9
:1022E000802189020A435A61124B5A6980239B025A
:1022F0001340FB60FB683B19C0221A603B190322A4
:102300005A603B1900229A603A199023DB051100AC
:10231000180000F027FF002200210C2000F01CFC18
:102320000C2000F02EFCC046BD460BB090BDC04650
:10233000002401400010024090B58BB000AF7860DF
:1023400014243B19180014231A00002108F0A3FAE2
:102350007B681B68194A93422BD1194BDA69184BD9
:10236000802189050A43DA61154BDA6980239B05D0
:1023700013403B613B69124B5A69114B8021890222
:102380000A435A610E4B5A6980239B021340FB603B
:10239000FB683B1910221A603B1903225A603B1953
:1023A00000229A603A199023DB051100180000F012
:1023B000D9FEC046BD460BB090BDC046007400407B
:1023C0000010024080B584B000AF78607B681B6865
:1023D0000A4A93420DD10A4B9A69094B802109019F
:1023E0000A439A61064B9A6980231B011340FB60E4
:1023F000FB68C046BD4604B080BDC046002C01400D
:102400000010024080B500AFC046BD4680BD80B51B
:1024100000AFFEE780B500AFC046BD4680BD80B5C9
:1024200000AFC046BD4680BD80B500AF00F094F857
:10243000C046BD4680BD000080B500AF034B18000C
:1024400000F016FAC046BD4680BDC04648040020D4
:1024500080B500AF034B180001F06CF9C046BD46D3
:1024600080BDC0464411002080B500AFC046BD46C7
:1024700080BD00000D4885460D480E490E4A0023D8
:1024800002E0D458C4500433C4188C42F9D30B4A28
:102490000B4C002301E013600432A242FBD3FFF790
:1024A000E3FF08F0CBF9FFF7C9F9FEE70040002091
:1024B00000000020D4000020ECAB0008D800002071
:1024C00038140020FEE7000080B500AF074B1A6803
:1024D000064B10210A431A60002000F009F8FFF7AC
:1024E000B9FE00231800BD4680BDC0460020024052
:1024F00090B583B000AF7860144B1C68144B1B7808
:102500001900FA239800FDF707FE030019002000C8
:10251000FDF702FE0300180000F043FB031E01D08C
:1025200001230FE07B68032B0BD8796801235B4202
:102530000022180000F010FB064B7A681A60002396
:1025400000E001231800BD4603B090BD0400002048
:102550000C0000200800002080B500AF054B1B7860
:102560001A00054B1B68D218034B1A60C046BD46C3
:1025700080BDC0460C0000208804002080B500AF5C
:10258000024B1B681800BD4680BDC0468804002071
:1025900080B584B000AF7860FFF7F0FF0300BB6048
:1025A0007B68FB60FB68013305D00A4B1B781A007F
:1025B000FB689B18FB60C046FFF7E0FF0200BB68AA
:1025C000D31AFA689A42F7D8C046C046BD4604B04E
:1025D00080BDC0460C00002080B584B000AF78609C
:1025E0000F23FB1800221A700023BB607B68002BAE
:1025F00001D1012325E17B689B6B002B0AD17B680D
:102600000022DA637B683422002199547B68180029
:10261000FFF744FE7B689B6B1022134000D003E160
:102620000F23FB181B78002B00D0FDE07B681B6894
:102630009B680422134000D0F6E07B689B6B834AC2
:10264000134002221A437B689A637B681B689B686D
:1026500003221340012B12D17B681B681B680122E7
:102660001340012B09D07B681B68DA6880231B02AA
:102670001A4080231B029A4201D1012300E000236B
:10268000002B16D17B681B68DB6818229343190066
:102690007B689A687B681B680A43DA607B681B6802
:1026A0001B699B0099087B685A687B681B680A4312
:1026B0001A617B681B68DA687B681B6864490A409A
:1026C000DA607B681B7E9A037B685B7EDB031A43C0
:1026D0007B689B7E5B031A437B689B6A012B02D05D
:1026E00080235B0100E000231A437B68DB681A4308
:1026F0007B681B69022B01D1042300E000231A43ED
:102700007B6824215B5C5B001343BA681343BB60A6
:102710007B68DB7E012B15D17B689B7E002B05D16E
:10272000BB68802252021343BB600BE07B689B6B4B
:1027300020221A437B689A637B68DB6B01221A4371
:102740007B68DA637B68DA69C223FF339A4207D079
:102750007B68DA697B681B6A1343BA681343BB6002
:102760007B681B68D9687B681B68BA680A43DA60B3
:102770007B68DA6A80235B059A421BD07B68DB6A40
:10278000012B17D07B68DB6A022B13D07B68DB6AD6
:10279000032B0FD07B68DB6A042B0BD07B68DB6AD2
:1027A000052B07D07B68DB6A062B03D07B68DB6ACE
:1027B000072B12D17B681B685A697B681B6807214D
:1027C0008A435A617B681B6859697B68DB6A072208
:1027D0001A407B681B680A435A617B681B68DB6888
:1027E0001C4A1340BA689A420BD17B680022DA6314
:1027F0007B689B6B0322934301221A437B689A6395
:102800001CE07B689B6B1222934310221A437B6867
:102810009A637B68DB6B01221A437B68DA630F23C0
:10282000FB1801221A7009E07B689B6B10221A4387
:102830007B689A630F23FB1801221A700F23FB1881
:102840001B781800BD4604B080BDC046FDFEFFFFEA
:102850001902FEFFE7FF3F8380B582B000AF7860CA
:102860007B681B681B6C1800BD4602B080BD000071
:1028700080B582B000AF78607B681B681B6804225B
:102880001340042B06D17B681B685B68042213404D
:10289000042B0DD07B681B681B6808221340082B93
:1028A0004FD17B681B685B6808221340082B48D116
:1028B0007B689B6B1022134006D17B689B6B802248
:1028C00092001A437B689A637B681B68DA68C023AE
:1028D0001B0113402DD17B689B7E002B29D17B6887
:1028E0001B681B6808221340082B22D17B681B68D9
:1028F0009B680422134010D17B681B685A687B6870
:102900001B680C218A435A607B689B6B334A1340D7
:1029100001221A437B689A630BE07B689B6B202241
:102920001A437B689A637B68DB6B01221A437B68DE
:10293000DA637B681800FEF7E3FE7B681B680C22F5
:102940001A607B681B681B6880221340802B15D19E
:102950007B681B685B6880221340802B0ED17B68EC
:102960009B6B802252021A437B689A637B68180033
:1029700000F036F87B681B6880221A607B681B6851
:102980001B6810221340102B23D17B681B685B68E7
:1029900010221340102B1CD17B689B6A012B06D0A0
:1029A0007B681B68DB6801221340012B0DD17B681B
:1029B000DB6B02221A437B68DA637B681B68102298
:1029C0001A607B68180000F013F87B681B681022FF
:1029D0001A60C046BD4602B080BDC046FEFEFFFF85
:1029E00080B582B000AF7860C046BD4602B080BD01
:1029F00080B582B000AF7860C046BD4602B080BDF1
:102A000080B582B000AF0200FB1D1A70FB1D1B7861
:102A10007F2B09D8FB1D1B781A001F231A40044B7B
:102A2000012191400A001A60C046BD4602B080BD37
:102A300000E100E090B583B000AF02003960FB1DFB
:102A40001A70FB1D1B787F2B28D82F4AFB1D1B7883
:102A50005BB29B08C0339B009B58FA1D1278110093
:102A600003220A40D200FF2191400A00D2431A40BB
:102A700011003B689B01FF221A40FB1D1B781800C8
:102A800003230340DB009A401F48FB1D1B785BB209
:102A90009B080A43C0339B001A5031E01B4AFB1DC0
:102AA0001B7819000F230B40083B9B0806339B0043
:102AB000D31804331B68FA1D1278110003220A4050
:102AC000D200FF2191400A00D2431A4011003B6816
:102AD0009B01FF221A40FB1D1B78180003230340B3
:102AE000DB009A400948FB1D1B781C000F23234084
:102AF000083B9B080A4306339B00C31804331A6043
:102B0000C046BD4603B090BD00E100E000ED00E02E
:102B100080B582B000AF78607B685A1E80235B046A
:102B20009A4201D3012310E00A4B7A68013A5A60B5
:102B300001235B4203211800FFF77CFF054B0022B5
:102B40009A60044B07221A6000231800BD4602B0A9
:102B500080BDC04610E000E080B584B000AFB96031
:102B60007A600F217B18021C1A70BA687B181B78D8
:102B70005BB211001800FFF75DFFC046BD4604B010
:102B800080BD80B582B000AF0200FB1D1A70FB1D36
:102B90001B785BB21800FFF733FFC046BD4602B09A
:102BA00080BD80B582B000AF78607B681800FFF709
:102BB000AFFF03001800BD4602B080BD80B582B0F3
:102BC00000AF78607B68002B01D1012315E07B68A2
:102BD0001B79DBB2002B06D17B6800225A717B681F
:102BE0001800FFF7A9FB7B6802221A717B6800229C
:102BF0001A617B6801221A7100231800BD4602B0D9
:102C000080BD80B586B000AFF860B9607A603B6087
:102C100000237B61FB681B687B61BB68002B05D1CF
:102C20007A697B68D31808337B6104E07A697B6832
:102C3000D31814337B617B693A681A60002318004B
:102C4000BD4606B080BD000080B586B000AFF8601C
:102C5000B9607A6000237B6100233B61FB685B798C
:102C6000012B01D1022329E0FB6801225A71FB6884
:102C700002221A71FB681B681B687B61114A7B6822
:102C80009A401300DA437B6913407B61BB681A6882
:102C9000BB685B6813433B613A697B689A401300E9
:102CA0007A6913437B61FB681B687A691A60FB6869
:102CB00001221A71FB6800225A7100231800BD46D8
:102CC00006B080BDFE0F000080B582B000AF786016
:102CD00039607B685B79012B01D102233BE07B6883
:102CE00001225A717B6802221A717B681B6819687D
:102CF00001223B689A407B681B680A431A603B6864
:102D0000002B0FD17B681B681B683C2213403C2BB7
:102D10001AD17B681B685A687B681B6801210A43CB
:102D20005A6011E07B681B681A68F0239B031A4005
:102D3000F0239B039A4207D17B681B685A687B6823
:102D40001B6802210A435A607B6801221A717B6862
:102D500000225A7100231800BD4602B080BD000059
:102D6000F0B587B000AFF860B9603A607B601723B8
:102D7000FB1801221A701623FB1800221A70152363
:102D8000FB1800221A703E4B1B7E012B01D102233F
:102D900072E03B4B01221A761723FE18394B1800BC
:102DA00000F0C4F8030033701723FB181B78002BC6
:102DB0005CD1FB68012B04D11523FB1801221A708A
:102DC0000BE0FB68022B04D11523FB1802221A70BA
:102DD00003E01523FB1804221A701623FB180022A7
:102DE0001A7039E016217B181B785A00BB68D0187E
:102DF0007B181B781B011A00203A002A03DB796834
:102E0000D1400C0008E02022D21A796891400A00D3
:102E10003968D9400C0014437A68DA401500A3B22F
:102E2000190000F067F81723FE18164B180000F081
:102E30007DF803003370144B1A69134B01218A4348
:102E40001A611723FB181B78002B0ED116217B1853
:102E50001A787B1801321A701623FA181523FB18FA
:102E600012781B789A42BDD300E0C046044B002282
:102E70001A761723FB181B781800BD4607B0F0BD63
:102E80009004002050C300000020024080B582B0B2
:102E900000AFFB1D00221A700C4B1B6980221340EF
:102EA0000DD00A4B0A4A5A60084B0A4A5A60074B2F
:102EB0001B698022134002D0FB1D01221A70FB1DEA
:102EC0001B781800BD4602B080BDC04600200240FD
:102ED00023016745AB89EFCD80B500AF044B1A697C
:102EE000034B80210A431A6100231800BD4680BDB0
:102EF0000020024080B582B000AF78600A00BB1CA1
:102F00001A80084B0022DA61074B1A69064B01212F
:102F10000A431A617B68BA1C12881A80C046BD46F3
:102F200002B080BD900400200020024080B584B033
:102F300000AF7860FFF722FB0300FB600FE07B68C7
:102F400001330CD07B68002B07D0FFF717FB020082
:102F5000FB68D31A7A689A4201D203231FE0124B0E
:102F6000DB6801221340012BE9D00F4BDB682022E4
:102F70001340202B02D10C4B2022DA600A4BDB6875
:102F800010221340102B05D0074BDB68042213409E
:102F9000042B03D100F00AF8012300E000231800FD
:102FA000BD4604B080BDC0460020024080B582B05E
:102FB00000AF00237B60134BDB6810221340102B03
:102FC00009D1114BDB6902221A430F4BDA617B688E
:102FD000102213437B600B4BDB6804221340042B4D
:102FE00009D1094BDB6901221A43074BDA617B687F
:102FF000042213437B60034B7A68DA60C046BD4607
:1030000002B080BD0020024090040020B0B584B022
:1030100000AF786039600F23FB1801221A7000237B
:10302000BB60324B1B7E012B01D102235AE02F4B98
:1030300001221A767B681B68012B16D12C4B1800D5
:10304000FFF774FF031E47D100F056F80F23FC185A
:10305000274B1800FFF76AFF03002370254B1A69FE
:10306000244B04218A431A6136E0214B1800FFF7F4
:103070005DFF031E30D13B68012252421A607B681B
:103080005B68BB601FE0BB68180000F04DF80F25BF
:103090007C19174B1800FFF749FF03002370154BED
:1030A0001A69144B02218A431A617B191B78002B81
:1030B00003D03B68BA681A600EE0BB688022120138
:1030C00094466344BB607B689B68DA027B685B68FC
:1030D000D318BA689A42D6D3044B00221A760F232B
:1030E000FB181B781800BD4604B0B0BD900400204A
:1030F00050C300000020024080B500AF084B002202
:10310000DA61084B1A69074B04210A431A61054B1F
:103110001A69044B40210A431A61C046BD4680BD6E
:10312000900400200020024080B582B000AF78609B
:103130000A4B0022DA610A4B1A69094B02210A4341
:103140001A61074B7A685A61054B1A69044B402192
:103150000A431A61C046BD4602B080BD90040020FB
:103160000020024080B586B000AF7860396000234F
:103170007B6155E13B681B6801217A6991400A0037
:103180001340FB60FB68002B00D146E13B685B68A5
:1031900003221340012B05D03B685B6803221340D8
:1031A000022B30D17B689B683B617B695B0003220B
:1031B0009A401300DA433B6913403B613B68DA688D
:1031C0007B695B009A4013003A6913433B617B685B
:1031D0003A699A607B685B683B6101227B699A402F
:1031E0001300DA433B6913403B613B685B681B0992
:1031F00001221A407B699A4013003A6913433B61EC
:103200007B683A695A603B685B6803221340032B72
:1032100017D07B68DB683B617B695B0003229A40C7
:103220001300DA433B6913403B613B689A687B6952
:103230005B009A4013003A6913433B617B683A692B
:10324000DA603B685B6803221340022B23D17B6961
:10325000DA087B6808329200D3583B617B69072209
:1032600013409B000F229A401300DA433B6913403E
:103270003B613B681A697B6907210B409B009A40C0
:1032800013003A6913433B617B69DA087B680832B3
:1032900092003969D1507B681B683B617B695B0098
:1032A00003229A401300DA433B6913403B613B68B9
:1032B0005B6803221A407B695B009A4013003A69FD
:1032C00013433B617B683A691A603B685A68C023C4
:1032D0009B02134000D1A0E0574B9A69564B012145
:1032E0000A439A61544B9B6901221340BB60BB683F
:1032F000524A7B699B0802339B009B583B617B6968
:10330000032213409B000F229A401300DA433B69CB
:1033100013403B617A689023DB059A4219D07B68A1
:10332000474A934213D07B68464A93420DD07B684C
:10333000454A934207D07B68444A934201D1042313
:1033400008E0052306E0032304E0022302E0012352
:1033500000E000237A6903210A40920093403A6911
:1033600013433B6135497B699B0802339B003A69F3
:103370005A50374B1B683B61FB68DA433B6913408B
:103380003B613B685A6880235B02134003D03A6973
:10339000FB6813433B612E4B3A691A602C4B5B6808
:1033A0003B61FB68DA433B6913403B613B685A6809
:1033B00080239B02134003D03A69FB6813433B61AF
:1033C000234B3A695A60224B9B683B61FB68DA43A6
:1033D0003B6913403B613B685A6880235B031340A1
:1033E00003D03A69FB6813433B61194B3A699A6011
:1033F000174BDB683B61FB68DA433B6913403B6179
:103400003B685A6880239B03134003D03A69FB68EA
:1034100013433B610E4B3A69DA607B6901337B6190
:103420003B681A687B69DA40131E00D0A2E6C046EA
:10343000C046BD4606B080BD0010024000000140FD
:103440000004004800080048000C00480010004834
:103450000004014080B584B000AF78600A00BB1C56
:103460001A807B681B69BA1C1288134004D00F2392
:10347000FB1801221A7003E00F23FB1800221A70B8
:103480000F23FB181B781800BD4604B080BD80B523
:1034900082B000AF786008001100BB1C021C1A80CB
:1034A0007B1C0A1C1A707B1C1B78002B04D0BB1CD5
:1034B0001A887B689A6103E0BB1C1A887B689A6251
:1034C000C046BD4602B080BDF0B58BB006AF786097
:1034D0007B68002B01D10123FFE07B68814A9B5C64
:1034E000DBB2002B08D17A68AA239B000021D154BB
:1034F0007B68180006F044FE7B687A4A03219954E1
:103500007B681B68180002F02BFF0F23FB180022BA
:103510001A7058E00F203B181B7879685A1C13006A
:103520009B009B18DB00CB18013301221A703B185B
:103530001B7879685A1C13009B009B18DB003A1813
:1035400012785A5404003B181A783B191B7898B229
:10355000796813009B009B18DB00CB183633021CE4
:103560001A803B191B7879685A1C13009B009B1822
:10357000DB00CB18033300221A703B191A787968E4
:1035800013009B009B18DB00CB18383300221A6015
:103590003B191A78796813009B009B18DB00CB1845
:1035A0003C3300221A603B191A78796813009B009B
:1035B0009B18DB00CB18403300221A603B191A78A5
:1035C0003B1901321A700F217B181A787B685B68EF
:1035D0009A429FD37B1800221A7056E00F243B19A1
:1035E0001A7878686A23FF33190013009B009B1830
:1035F000DB00C3185B1800221A703B191A78786830
:10360000B423590013009B009B18DB00C3185B1800
:103610003A1912781A703B191A7878686C23FF33BC
:10362000190013009B009B18DB00C3185B180022D5
:103630001A703B191A787868BC23590013009B0054
:103640009B18DB00C3185B1800221A603B191A781C
:103650007868BE23590013009B009B18DB00C31839
:103660005B1800221A603B191A787868C023590049
:1036700013009B009B18DB00C3185B1800221A6024
:103680003B191A783B1901321A700F23FB181A786C
:103690007B685B689A42A1D37B6818687B686A463E
:1036A00011001A00103270CA70C130CA30C1596896
:1036B0009A68DB6802F06EFE7B6824220021995430
:1036C0007B68084A012199547B68DB69012B03D18F
:1036D0007B68180001F034FD00231800BD4605B0DA
:1036E000F0BDC046A902000080B582B000AF78608E
:1036F0007A68AA239B00D35C012B01D1022314E03A
:103700007A68AA239B000121D1547B681B681800AA
:1037100002F010FE7B681B68180004F06BFD7A68ED
:10372000AA239B000021D15400231800BD4602B0FB
:1037300080BD000080B582B000AF78607B681B68F8
:10374000180004F06DFD020080231B021A40802344
:103750001B029A4203D17B68180000F0BBFB7B6818
:103760001B68180004F05CFD02008023DB001A4097
:103770008023DB009A4214D17B681B6844229B5A49
:103780009AB27B681B68A2490A4091B244229952BE
:103790007B68180006F07FFD7B680021180000F0B0
:1037A00045F97B681B68180004F03AFD020080238D
:1037B000DB011A408023DB019A420BD17B681B6836
:1037C00044229B5A9AB27B681B6892490A4091B284
:1037D000442299527B681B68180004F021FD020006
:1037E00080239B011A4080239B019A420BD17B6866
:1037F0001B6844229B5A9AB27B681B6886490A4020
:1038000091B2442299527B681B68180004F008FDAD
:10381000020080235B011A4080235B019A4237D16A
:103820007B681B6840229B5A9AB27B681B68042104
:103830008A4391B2402299527B681B6840229B5A6E
:103840009AB27B681B6808218A4391B24022995240
:103850007A68B8239B00D35C012B09D17A68B8231E
:103860009B000021D1547B680021180001F092FCDC
:103870007B68180006F050FD7B681B6844229B5A49
:103880009AB27B681B6865490A4091B244229952FA
:103890007B681B68180004F0C3FC020080231B0136
:1038A0001A4080231B019A4227D17B681B68402263
:1038B0009B5A9AB27B681B6808210A4391B2402246
:1038C00099527B681B6844229B5A9AB27B681B689A
:1038D00053490A4091B2442299527B681B684022A6
:1038E0009B5A9AB27B681B6804210A4391B240221A
:1038F00099527B68180006F0F3FC7B681B6818007F
:1039000004F08EFC030080221340802B45D17B689D
:103910001B6844229B5A9AB27B681B6880218A43A9
:1039200091B2442299527A68B8239B00D35C002B51
:103930002FD17B681B6840229B5A9AB27B681B6818
:1039400004210A4391B2402299527B681B684022AD
:103950009B5A9AB27B681B6808210A4391B24022A5
:1039600099527A68B8239B000121D1547B681B6867
:1039700054229B5A9BB29B083C22134019007A6840
:10398000B9239B00D1507B680121180001F002FC93
:1039900003E07B68180006F0A3FC7B681B68180036
:1039A00004F03EFC020080239B001A4080239B0011
:1039B0009A420FD17B681B6844229B5A9AB27B685B
:1039C0001B6818490A4091B2442299527B6818003A
:1039D00006F052FC7B681B68180004F021FC020012
:1039E00080235B001A4080235B009A420BD17B68E6
:1039F0001B6844229B5A9AB27B681B680A490A409A
:103A000091B244229952C046BD4602B080BDC04624
:103A1000FFFBFFFFFFBFFFFFFFDFFFFFFFEFFFFF2A
:103A2000FFF7FFFFFFFDFFFFFFFEFFFF80B582B046
:103A300000AF78600A00FB1C1A707A68AA239B000A
:103A4000D35C012B01D1022317E07A68AA239B00E3
:103A50000121D1547B68FA1C242112785A547B68C6
:103A60001A68FB1C1B781900100004F0AFFB7A6881
:103A7000AA239B000021D15400231800BD4602B0A8
:103A800080BD90B585B000AF78600C0010001900C3
:103A9000FB1C221C1A703B00021C1A80BB1C0A1C57
:103AA0001A700B23FB1800221A70FB1C1B785BB2E8
:103AB000002B0FDAFB1C1B78072213405A1C130043
:103AC0009B009B18DB007A68D318FB60FB6801221F
:103AD0005A700FE0FB1C1B7807221A4013009B0052
:103AE0009B18DB006933FF337A68D318FB60FB68EF
:103AF00000225A70FB1C1B7807221340DAB2FB68C5
:103B00001A703B001A88FB681A61FB68BA1C1278AD
:103B1000DA70FB685B78002B04D0FB681B789AB2E4
:103B2000FB68DA81BB1C1B78022B02D1FB680022E8
:103B30001A717A68AA239B00D35C012B01D102235E
:103B400013E07A68AA239B000121D1547B681B688B
:103B5000FA681100180002F049FC7A68AA239B0059
:103B60000021D1540B23FB181B781800BD4605B06B
:103B700090BD80B584B000AF78600A00FB1C1A705D
:103B8000FB1C1B785BB2002B0FDAFB1C1B78072297
:103B900013405A1C13009B009B18DB007A68D31853
:103BA000FB60FB6801225A700FE0FB1C1B780722A8
:103BB0001A4013009B009B18DB006933FF337A68BF
:103BC000D318FB60FB6800225A70FB1C1B7807228D
:103BD0001340DAB2FB681A707A68AA239B00D35CA0
:103BE000012B01D1022311E07A68AA239B00012155
:103BF000D1547B681B68FA681100180002F06AFF54
:103C00007A68AA239B000021D15400231800BD46E6
:103C100004B080BD80B586B000AFF8607A603B60CC
:103C20000B203B180A1C1A7001007B181B78072216
:103C30001A4013009B009B18DB006933FF33FA68BE
:103C4000D3187B617B697A685A617B693A689A61AB
:103C50007B690022DA617B6900225A707B181B782D
:103C600007221340DAB27B691A707B181B7807228F
:103C7000134007D1FB681B687A691100180003F034
:103C8000E9F806E0FB681B687A691100180003F088
:103C9000E1F800231800BD4606B080BD80B582B0B3
:103CA00000AF78600A00FB1C1A70FB1C1B7807220F
:103CB0001A407868C223590013009B009B18DB0050
:103CC000C3185B181B681800BD4602B080BD80B5E4
:103CD00086B000AFF8607A603B600B203B180A1C8E
:103CE0001A703B181B78072213405A1C13009B00C4
:103CF0009B18DB00FA68D3187B617B697A685A618C
:103D00007B693A689A617B692422012199547B6915
:103D10003A681A627B690022DA617B6901225A7073
:103D20003B181B7807221340DAB27B691A703B18E4
:103D30001B780722134007D1FB681B687A691100C2
:103D4000180003F087F806E0FB681B687A69110029
:103D5000180003F07FF800231800BD4606B080BDB0
:103D600080B584B000AF78600A00FB1C1A70FB1CA1
:103D70001B7807221A407B685B689A4201D90123AD
:103D800046E0FB1C1B785BB2002B0FDAFB1C1B7898
:103D9000072213405A1C13009B009B18DB007A6813
:103DA000D318FB60FB6801225A700DE0FB1C1A78E7
:103DB00013009B009B18DB006933FF337A68D3182C
:103DC000FB60FB6800225A70FB6801229A70FB1CA2
:103DD0001B7807221340DAB2FB681A707A68AA23AC
:103DE0009B00D35C012B01D1022311E07A68AA2346
:103DF0009B000121D1547B681B68FA6811001800F0
:103E000004F0E2F87A68AA239B000021D154002331
:103E10001800BD4604B080BD80B584B000AF7860A6
:103E20000A00FB1C1A70FB1C1B780F221A407B68CF
:103E30005B689A4201D9012348E0FB1C1B785BB206
:103E4000002B0FDAFB1C1B78072213405A1C1300AF
:103E50009B009B18DB007A68D318FB60FB6801228B
:103E60005A700FE0FB1C1B7807221A4013009B00BE
:103E70009B18DB006933FF337A68D318FB60FB685B
:103E800000225A70FB6800229A70FB1C1B780722E4
:103E90001340DAB2FB681A707A68AA239B00D35CDD
:103EA000012B01D1022311E07A68AA239B00012192
:103EB000D1547B681B68FA681100180004F0D4F82C
:103EC0007A68AA239B000021D15400231800BD4624
:103ED00004B080BDB0B596B000AF786000F0D8FBFC
:103EE0007B681A6856203B184421525A1A803B18A6
:103EF0001B88DAB255243B190F210A401A703B196E
:103F00001B78002B00D079E13B181B88102213404E
:103F100054D17B681B681B889AB20E203B18AF49AE
:103F20000A401A807B681B683A181288AC490A4319
:103F300092B21A807B682833FB647B681B6850222E
:103F40009B5A9BB21A00FB6C1B78DB00D2187B6873
:103F50001B68D318A34A944663441B889B059A0D9B
:103F6000FB6CDA61FB6C5A69FB6CDB69D218FB6C89
:103F70005A617B680021180006F060F97B682422F2
:103F80009B5CDBB2002B01D100F082FBFB6C9B69D8
:103F9000002B01D000F07CFB7B6824229B5CDBB211
:103FA000802252421343DAB27B681B6891B24C22E2
:103FB00099527B6824220021995469E37B68693314
:103FC000FF33FB647B681A6852217B1812881A80C1
:103FD0007B181A8880231B01134037D07B681B682D
:103FE00050229B5A9BB21A00FB6C1B78DB00D21844
:103FF0007B681B68D3187C4A944663441B889B05E6
:104000009A0DFB6CDA617B6818687B68AC229200C1
:104010009918FB6CDA88FB6CDB699BB204F052F9EF
:104020007B681B681B889AB210203B186F490A40B6
:104030001A807B681B683A18128880210A4392B262
:104040001A807B68180006F0C3F821E35223FB189E
:1040500000229B5E002B00DB1AE37B681B681B8839
:104060009AB21E203B1861490A401A807B681B687F
:104070003A18128880210A4392B21A807B681B6822
:1040800050229B5A9BB21A00FB6C1B78DB00D218A3
:104090007B681B68D318544A944663441B889B056D
:1040A0009A0DFB6CDA61FB6CDB69002B1AD0FB6CA0
:1040B0005B69002B16D07B681868FB6C5969FB6C38
:1040C000DA88FB6CDB699BB204F0FCF8FB6C5A6984
:1040D000FB6CDB69D218FB6C5A617B68002118000D
:1040E00006F08BF87B681B681B889BB21A00802344
:1040F0001B01134000D0CBE27B681B68BB617B686F
:104100001B6850229B5A9BB21A00BB699B18BB616B
:10411000BB69354A944663447B61FB6C1B69002B89
:1041200010D17B691B889BB2314A13409AB27B69DC
:104130001A807B691B889BB2294A13439AB27B6918
:104140001A802BE0FB6C1B693E2B12D8FB6C1B69A1
:104150005B087B64FB6C1B690122134002D07B6C03
:1041600001337B647B6C9BB29B029AB27B691A80A1
:1041700014E0FB6C1B695B097B64FB6C1B691F22F1
:10418000134002D17B6C013B7B647B6C9BB29B0236
:104190009BB2134A13439AB27B691A807B681B68EF
:1041A0001B889AB212203B1812490A401A803B1809
:1041B0003A181288802149014A401A803B183A185F
:1041C0001288802189014A401A807B681B683A184E
:1041D000128809490A4392B21A8059E20F8FFFFFF1
:1041E0000080FFFF02040000060400008F0F0000A3
:1041F000FF83FFFF8FBFFFFF8080FFFF7B681B688F
:104200001A0055203B181B789B00D21852217B18AE
:1042100012881A807B1800229B5E002B00DBFAE0DC
:104220007B681B681A003B181B789B00D3181B88FF
:104230009AB250243B19CF490A401A807B681B6808
:104240001A003B181B789B00D3183A19128880215A
:104250000A4392B21A803B181A7813009B009B18ED
:10426000DB006933FF337A68D318FB64FB6C1B7B7C
:10427000002B25D17B681B6850229B5A9BB21A00E9
:10428000FB6C1B78DB00D2187B681B68D318BA4A1A
:10429000944663441A8848243B199205920D1A806B
:1042A0003B191B88002B00D18DE07B681868FB6CE4
:1042B0005969FB6CDA883B191B8804F003F882E02B
:1042C000FB6CDB78022B0CD14823FC185223FB1823
:1042D0001A88F96C7B68180000F0EEF9030023805F
:1042E00071E07B681B681A00FB6C1B789B00D3187D
:1042F0001B889AB24A203B18A0490A401A807B6862
:104300001B681A00FB6C1B789B00D3183A181288A4
:104310009B490A4392B21A807B681B681A00FB6CA7
:104320001B789B00D3181B889BB21A008023DB01EB
:10433000134024D07B681B6850229B5A9BB21A0002
:10434000FB6C1B78DB00D2187B681B68D3188D4A86
:10435000944663441A8848243B199205920D1A80AA
:104360003B191B88002B2ED07B681868FB6C5969A1
:10437000FB6C1A893B191B8803F0A4FF23E07B68C0
:104380001B6850229B5A9BB21A00FB6C1B78DB0007
:10439000D2187B681B68D318774A944663441A88FE
:1043A00048243B199205920D1A803B191B88002B5B
:1043B00009D07B681868FB6C5969FB6C5A893B19FA
:1043C0001B8803F07FFFFB6CDA6948217B181B8890
:1043D000D218FB6CDA61FB6C5A697B181B88D21807
:1043E000FB6C5A61FB6C9B69002B05D07B181A880B
:1043F000FB6C1B699A4207D2FB6C1A787B68110030
:10440000180005F0FAFE06E07B681B68FA6C1100E4
:10441000180002F01FFD52243B191B888022134014
:1044200000D135E155203B181B785A1C13009B0026
:104430009B18DB007A68D318FB647B681B681A0042
:104440003B181B789B00D3181B889AB242257B1916
:104450004D490A401A807B681B681A003B181B787C
:104460009B00D3187A19128848490A4392B21A80DD
:10447000FB6CDB78022B00D1ADE0FB6C00229A6173
:104480003B191B884022134046D0FB6C5B78002B05
:1044900025D17B681B687B627B681B6850229B5A16
:1044A0009BB21A007B6A9B187B62FB6C1B78DA005C
:1044B0007B6AD318334A944663443B623B6A1B8849
:1044C0009BB2334A13409AB23B6A1A803B6A1B88FC
:1044D0009BB22E4A13439AB23B6A1A8073E0FB6C7C
:1044E0005B78012B6FD17B681B68FB627B681B6864
:1044F00050229B5A9BB21A00FB6A9B18FB62FB6C12
:104500001B78DA00FB6AD3181E4A94466344BB62E8
:10451000BB6A00221A8056E07B681B68FB63FB6C59
:104520005B78002B36D17B681B687B637B681B68DC
:1045300050229B5A9BB21A007B6B9B187B63FB6CCF
:104540001B78DA007B6BD3180B4A944663443B63B9
:104550003B6B1B889BB20E4A13409AB23B6B1A808E
:104560003B6B1B889BB2094A13439AB23B6B1A8080
:1045700029E0C0468F0F0000060400008F8FFFFF68
:10458000C080FFFF020400000F8FFFFF0080FFFFCD
:10459000FF83FFFFFB6C5B78012B14D17B681B68EA
:1045A00050229B5A9BB21A00FB6B9B18FB63FB6C5F
:1045B0001B78DA00FB6BD3183D4A94466344BB6317
:1045C000BB6B00221A80FB6C1A787B681100180004
:1045D00005F034FE5CE0FB6CDB78022B50D15223FB
:1045E000FB181A8880235B00134049D17B681B6845
:1045F00050229B5A9BB21A00FB6C1B78DB00D2182E
:104600007B681B68D3182B4A944663441A88402160
:104610007B189205920D1A80FB6C9A697B181B8897
:104620009A4207D9FB6C9A697B181B88D21AFB6CDB
:104630009A6102E0FB6C00229A61FB6C9B69002B83
:1046400007D1FB6C1A787B681100180005F0F6FDA5
:104650001EE0FB6C5A6940217B181B88D218FB6C4A
:104660005A61FB6CDA697B181B88D218FB6CDA6123
:104670007B681B68FA6C1100180002F0EBFB07E086
:104680005223FB181A88F96C7B68180000F030F987
:104690007B681B6844229B5A9BB21BB2002B01DA39
:1046A000FFF71EFC00231800BD4616B0B0BDC04683
:1046B000060400000204000090B589B000AFF86065
:1046C000B960BB1D1A80BB1D1A888023DB01134013
:1046D00000D17DE0FB681B6850229B5A9BB21A00F8
:1046E000BB681B78DB00D218FB681B68D3187A4ABA
:1046F000944663441A881A217B189205920D1A80F9
:10470000BB689A697B181B889A4207D3BB689A6971
:104710007B181B88D21ABB689A6102E0BB68002232
:104720009A61BB689B69002B21D1FB681B681A004A
:10473000BB681B789B00D3181B889AB218203B18C3
:1047400066490A401A803B183A181288802189016C
:104750004A401A80FB681B681A00BB681B789B00E4
:10476000D3183A1812885E490A4392B21A80BB1DC8
:104770001B88402213401AD0FB681B681A00BB68D4
:104780001B789B00D3181B889AB216203B185549FA
:104790000A401A80FB681B681A00BB681B789B00E4
:1047A000D3183A18128850490A4392B21A801A2430
:1047B0003B191B88002B00D186E0FB681868BB689A
:1047C0005969BB681A893B191B8803F07BFD7BE0A4
:1047D000FB681B6850229B5A9BB21A00BB681B786F
:1047E000DB00D218FB681B68D318404A9446634428
:1047F0001A881A217B189205920D1A80BB689A6953
:104800007B181B889A4207D3BB689A697B181B8860
:10481000D21ABB689A6102E0BB6800229A61BB6849
:104820009B69002B21D1FB681B681A00BB681B78B1
:104830009B00D3181B889AB21E203B1827490A40B8
:104840001A803B183A181288802189014A401A8040
:10485000FB681B681A00BB681B789B00D3183A18CA
:1048600012881F490A4392B21A80BB1D1B8840223E
:1048700013401AD1FB681B681A00BB681B789B00A9
:10488000D3181B889AB21C203B1816490A401A807C
:10489000FB681B681A00BB681B789B00D3183A188A
:1048A000128811490A4392B21A801A243B191B88B4
:1048B000002B09D0FB681868BB685969BB685A8926
:1048C0003B191B8803F0FEFC1A23FB181B881800F9
:1048D000BD4609B090BDC046020400008FBFFFFF77
:1048E0008080FFFF8F8FFFFFC080FFFF0604000066
:1048F00080B5A2B000AFF860B960BB1D1A80BB1DC7
:104900001B884022134000D1C8E1FB681B6850227D
:104910009B5A9BB21A00BB681B78DB00D218FB685D
:104920001B68D318D74A944663441A884E217B18D3
:104930009205920D1A80BB689A697B181B889A426F
:1049400007D9BB689A697B181B88D21ABB689A6121
:1049500002E0BB6800229A61BB689B69002B00D013
:10496000B5E0BB685B78002B25D1FB681B68BB6298
:10497000FB681B6850229B5A9BB21A00BB6A9B18AB
:10498000BB62BB681B78DA00BB6AD318BD4A944689
:1049900063447B627B6A1B889BB2BB4A13409AB21A
:1049A0007B6A1A807B6A1B889BB2B84A13439AB20F
:1049B0007B6A1A801BE0BB685B78012B17D1FB6810
:1049C0001B683B63FB681B6850229B5A9BB21A0012
:1049D0003B6B9B183B63BB681B78DA003B6BD318BF
:1049E000A84A94466344FB62FB6A00221A80FB6873
:1049F0001B683B62BB685B78002B25D1FB681B689A
:104A0000BB61FB681B6850229B5A9BB21A00BB69B2
:104A10009B18BB61BB681B78DA00BB69D3189C4A42
:104A2000944663447B617B691B889BB2964A134022
:104A30009AB27B691A807B691B889BB2934A1343A5
:104A40009AB27B691A8018E0BB685B78012B14D19D
:104A5000FB681B6850229B5A9BB21A003B6A9B184A
:104A60003B62BB681B78DA003B6AD318884A9446DD
:104A70006344FB61FB6900221A80BB681A78FB68FB
:104A80001100180005F0DAFBBB1D1A888023DB013A
:104A9000134000D1D4E2FB681B681A00BB681B7886
:104AA0009B00D3181B889AB212203B1879490A4000
:104AB0001A80FB681B681A00BB681B789B00D31820
:104AC0003A18128874490A4392B21A80B8E2BB1DA0
:104AD0001A888023DB0113401AD0FB681B681A0078
:104AE000BB681B789B00D3181B889AB244203B18E4
:104AF00068490A401A80FB681B681A00BB681B786B
:104B00009B00D3183A18128863490A4392B21A805C
:104B1000BB6824229B5C012B00D091E2BB685A69E0
:104B20004E217B181B88D218BB685A61BB68DA69B2
:104B30007B181B88D218BB68DA61BB681A6ABB682D
:104B40001B699A4209D3BB681B693B65BB681A6A3B
:104B50003B6DD21ABB681A6216E0BB681B6A002B59
:104B600008D14E23FB181B883B65BB68242200211B
:104B7000995409E0BB68242200219954BB681B6A40
:104B80003B65BB6800221A62BB685B78002B50D182
:104B9000FB681B68BB63FB681B6850229B5A9BB277
:104BA0001A00BB6B9B18BB63BB681B78DA00BB6B3E
:104BB000D318344A944663447B633B6D002B10D179
:104BC0007B6B1B889BB2304A13409AB27B6B1A8076
:104BD0007B6B1B889BB22D4A13439AB27B6B1A8066
:104BE00044E03B6D3E2B10D83B6D5B08BB643B6DD6
:104BF0000122134002D0BB6C0133BB64BB6C9BB27F
:104C00009B029AB27B6B1A8030E03B6D5B09BB6400
:104C10003B6D1F22134002D1BB6C013BBB64BB6CDC
:104C20009BB29B029BB2194A13439AB27B6B1A80C8
:104C30001CE0BB685B78012B18D1FB681B683B64E8
:104C4000FB681B6850229B5A9BB21A003B6C9B1856
:104C50003B64BB681B78DA003B6CD318094A944666
:104C60006344FB633B6D9AB2FB6B1A80FB68186868
:104C7000BB685969BB681A893B6D9BB203F0DEFAC9
:104C8000DEE1C04602040000FF83FFFF0080FFFF5B
:104C9000060400008F8FFFFF80C0FFFFFB681B68CA
:104CA00050229B5A9BB21A00BB681B78DB00D218BB
:104CB000FB681B68D318CA4A944663441A884E217D
:104CC0007B189205920D1A80BB689A697B181B8825
:104CD0009A4207D3BB689A697B181B88D21ABB68B3
:104CE0009A6102E0BB6800229A61BB689B69002B55
:104CF00000D0C0E0BB685B78002B25D1FB681B6847
:104D0000FB66FB681B6850229B5A9BB21A00FB6E25
:104D10009B18FB66BB681B78DA00FB6ED318B14AA0
:104D200094466344BB66BB6E1B889BB2AE4A13407D
:104D30009AB2BB6E1A80BB6E1B889BB2AB4A134300
:104D40009AB2BB6E1A801BE0BB685B78012B17D14F
:104D5000FB681B687B67FB681B6850229B5A9BB2F1
:104D60001A007B6F9B187B67BB681B78DA007B6F30
:104D7000D3189C4A944663443B673B6F00221A80D9
:104D8000FB681B68BB67BB685B78002B30D1FB6896
:104D90001B6880217A181360FB681B6850229B5A9D
:104DA0009BB21A007B181B689B187A181360BB68AB
:104DB0001B78DA007B181B68D318894A9446634431
:104DC00084217A1813607B181B681B889BB2864A63
:104DD00013409AB27B181B681A807B181B681B88CB
:104DE0009BB2824A13439AB27B181B681A8018E060
:104DF000BB685B78012B14D1FB681B6850229B5A5F
:104E00009BB21A00BB6F9B18BB67BB681B78DA00AC
:104E1000BB6FD318724A94466344FB67FB6F002252
:104E20001A80BB681A78FB681100180005F006FAB2
:104E3000BB1D1A888023DB01134000D000E1FB6812
:104E40001B681A00BB681B789B00D3181B889AB29A
:104E500046203B1866490A401A80FB681B681A0006
:104E6000BB681B789B00D3183A18128861490A4323
:104E700092B21A80E4E0BB1D1A888023DB01134044
:104E80001AD1FB681B681A00BB681B789B00D318FB
:104E90001B889AB24C203B1855490A401A80FB687F
:104EA0001B681A00BB681B789B00D3183A1812883D
:104EB00050490A4392B21A80BB6824229B5C012BA2
:104EC00000D0BDE0BB685A694E217B181B88D21800
:104ED000BB685A61BB68DA697B181B88D218BB684B
:104EE000DA61BB681A6ABB681B699A4209D3BB685E
:104EF0001B693B65BB681A6A3B6DD21ABB681A62B4
:104F000016E0BB681B6A002B08D14E23FB181B88D8
:104F10003B65BB6824220021995409E0BB681B6AE9
:104F20003B65BB6800221A62BB68242200219954A9
:104F3000FB681B687B66BB685B78002B5CD1FB68F9
:104F40001B68FB65FB681B6850229B5A9BB21A00CA
:104F5000FB6D9B18FB65BB681B78DA00FB6DD318F3
:104F60001F4A94466344BB653B6D002B10D1BB6D5B
:104F70001B889BB21C4A13409AB2BB6D1A80BB6D52
:104F80001B889BB2194A13439AB2BB6D1A804DE03D
:104F90003B6D3E2B10D83B6D5B087B653B6D012262
:104FA000134002D07B6D01337B657B6D9BB29B020E
:104FB0009AB2BB6D1A8039E03B6D5B097B653B6D36
:104FC0001F22134002D17B6D013B7B657B6D9BB241
:104FD0009B029BB2054A13439AB2BB6D1A8025E02F
:104FE0000604000002040000FF83FFFF0080FFFFB3
:104FF0008F8FFFFF80C0FFFFBB685B78012B15D14F
:10500000FB681B6850229B5A9BB21A007B6E9B1850
:105010007B66BB681B78DA007B6ED3181E4A944609
:1050200063443B663B6D9AB23B6E1A80FB6818681E
:10503000BB685969BB685A893B6D9BB203F0FEF8A7
:10504000FB681B681A00BB681B789B00D3181B8881
:105050009AB210203B1811490A401A803B183A189E
:10506000128810214A401A803B183A1812882021D1
:105070004A401A80FB681B681A00BB681B789B00BB
:10508000D3183A18128806490A4392B21A800023AC
:105090001800BD4622B080BD06040000BF8FFFFF90
:1050A0008080FFFF90B587B000AFF8600800110066
:1050B0007B600A243B19021C1A800823FB180A1C77
:1050C0001A8021007B181B88802213409BB2002B82
:1050D0000CD07B181B88072213405A1C13009B001E
:1050E0009B18DB00FA68D3187B610BE00A23FB18DE
:1050F0001A8813009B009B18DB006933FF33FA68A2
:10510000D3187B610823FB181B88002B07D17B6910
:1051100000221A737B689AB27B69DA800BE07B69A4
:1051200001221A737B689AB27B691A817B681B0C17
:105130009AB27B695A8100231800BD4607B090BD22
:1051400080B584B000AF78607B681B68FB607A68CC
:10515000BA239B000121D1507A68B8239B0000211B
:10516000D154FB6854229B5A9BB20122134399B23B
:10517000FB6854229952FB6854229B5A9BB202222C
:10518000134399B2FB685422995200231800BD467C
:1051900004B080BD80B582B000AF78600A00FB1C0F
:1051A0001A70C046BD4602B080BD000080B588B010
:1051B00000AF78607B68002B02D1012300F076FB02
:1051C0007B681B680122134000D18EE0C54B5B68F1
:1051D0000C221340042B0ED0C24B5B680C221340F0
:1051E000082B17D1BF4B5A68C0235B021A4080239B
:1051F0005B029A420ED1BB4B1A6880239B0213407C
:1052000000D171E07B685B68002B00D06CE001236B
:1052100000F04CFB7B685B68012B07D1B14B1A682F
:10522000B04B802149020A431A602FE07B685B681B
:10523000002B0CD1AB4B1A68AA4BAB490A401A6041
:10524000A84B1A68A74BA9490A401A601EE07B6860
:105250005B68052B0ED1A34B1A68A24B8021C902B3
:105260000A431A609F4B1A689E4B802149020A43E9
:105270001A600BE09B4B1A689A4B9B490A401A60D4
:10528000984B1A68974B99490A401A607B685B688B
:10529000002B14D0FDF772F90300BB6108E0FDF7A5
:1052A0006DF90200BB69D31A642B01D90323FDE217
:1052B0008C4B1A6880239B021340F0D015E0FDF759
:1052C0005DF90300BB6108E0FDF758F90200BB6916
:1052D000D31A642B01D90323E8E2824B1A68802396
:1052E0009B021340F0D100E0C0467B681B6802229D
:1052F000134000D16CE07B4B5B680C2213400ED056
:10530000784B5B680C221340082B1FD1754B5A68F1
:10531000C0235B021A4080231B029A4216D1714BB4
:105320001B680222134005D07B68DB68012B01D08B
:105330000123BBE26B4B1B68F822934319007B6887
:105340001B69DA00674B0A431A6041E07B68DB683F
:10535000002B24D0634B1A68624B01210A431A6068
:10536000FDF70CF90300BB6108E0FDF707F9020047
:10537000BB69D31A022B01D9032397E2594B1B684F
:1053800002221340F1D0574B1B68F82293431900B7
:105390007B681B69DA00534B0A431A6018E0514BD3
:1053A0001A68504B01218A431A60FDF7E7F80300A1
:1053B000BB6108E0FDF7E2F80200BB69D31A022BDB
:1053C00001D9032372E2474B1B6802221340F1D13B
:1053D0007B681B680822134036D07B68DB69002B92
:1053E00019D0404B5A6A3F4B01210A435A62FDF7DC
:1053F000C5F80300BB6108E0FDF7C0F80200BB6917
:10540000D31A022B01D9032350E2364B5B6A0222E6
:105410001340F1D018E0334B5A6A324B01218A43D2
:105420005A62FDF7ABF80300BB6108E0FDF7A6F890
:105430000200BB69D31A022B01D9032336E2294BA0
:105440005B6A02221340F1D17B681B68042213407F
:1054500000D1B5E01F203B1800221A70214BDA69F9
:1054600080235B05134010D11E4BDA691D4B802150
:1054700049050A43DA611B4BDA6980235B05134057
:10548000FB60FB683B1801221A70194B1A688023D5
:105490005B0013401AD1164B1A68154B8021490046
:1054A0000A431A60FDF76AF80300BB6108E0FDF7E4
:1054B00065F80200BB69D31A642B01D90323F5E117
:1054C0000B4B1A6880235B001340F0D07B689B680D
:1054D000012B0FD1034B1A6A024B01210A431A62B6
:1054E00036E0C04600100240FFFFFEFFFFFFFBFF5B
:1054F000007000407B689B68002B0CD1CA4B1A6A75
:10550000C94B01218A431A62C74B1A6AC64B042150
:105510008A431A621CE07B689B68052B0CD1C24B46
:105520001A6AC14B04210A431A62BF4B1A6ABE4B66
:1055300001210A431A620BE0BB4B1A6ABA4B0121E4
:105540008A431A62B84B1A6AB74B04218A431A621B
:105550007B689B68002B14D0FDF710F80300BB613B
:1055600009E0FDF70BF80200BB69D31AAF4A93427A
:1055700001D903239AE1AC4B1B6A02221340F0D0FD
:1055800013E0FCF7FBFF0300BB6109E0FCF7F6FF4B
:105590000200BB69D31AA54A934201D9032385E1CE
:1055A000A14B1B6A02221340F0D11F23FB181B786A
:1055B000012B05D19C4BDA699B4B9D490A40DA616E
:1055C0007B681B681022134063D07B685B69012BEA
:1055D0002AD1954B5A6B944B04210A435A63924B40
:1055E0005A6B914B01210A435A63FCF7C7FF030032
:1055F000BB6108E0FCF7C2FF0200BB69D31A022BB3
:1056000001D9032352E1884B5B6B02221340F1D096
:10561000854B5B6BF822934319007B689B69DA002A
:10562000814B0A435A6334E07B685B69053311D1CF
:105630007D4B5A6B7C4B04218A435A637A4B5B6BDC
:10564000F822934319007B689B69DA00764B0A4382
:105650005A631EE0744B5A6B734B04210A435A631E
:10566000714B5A6B704B01218A435A63FCF786FFDA
:105670000300BB6108E0FCF781FF0200BB69D31A9D
:10568000022B01D9032311E1674B5B6B022213400C
:10569000F1D17B681B68202213405CD0624B5B68B1
:1056A0000C2213400C2B0ED05F4B5B680C22134076
:1056B000082B14D15C4B5A68C0235B021A40C023EC
:1056C0005B029A420BD1584B5A6B80235B0213400A
:1056D00040D07B681B6A012B3CD00123E6E07B684D
:1056E0001B6A002B1BD0504B5A6B4F4B8021490239
:1056F0000A435A63FCF742FF0300BB6108E0FCF772
:105700003DFF0200BB69D31A022B01D90323CDE070
:10571000454B5A6B80235B021340F0D01BE0424B99
:105720005A6B414B43490A405A63FCF727FF030079
:10573000BB6108E0FCF722FF0200BB69D31A022B11
:1057400001D90323B2E0384B5A6B80235B0213402C
:10575000F0D100E0C0467B685B6A002B00D1A4E07A
:10576000314B5B680C221340082B00D178E07B683A
:105770005B6A022B4CD12C4B1A682B4B2E490A40EA
:105780001A60FCF7FBFE0300BB6108E0FCF7F6FEC5
:105790000200BB69D31A022B01D9032386E0224BF6
:1057A0001A6880239B041340F0D11F4BDB6A0F2241
:1057B000934319007B681A6B1B4B0A43DA621A4B3E
:1057C0005B681E4A134019007B68DA6A7B689B6A33
:1057D0001A43154B0A435A60134B1A68124B802127
:1057E00049040A431A60FCF7C9FE0300BB6108E0E4
:1057F000FCF7C4FE0200BB69D31A022B01D90323B4
:1058000054E0094B1A6880239B041340F0D04CE00D
:10581000054B1A68044B08490A401A60FCF7AEFEB3
:105820000300BB6115E0C046001002408813000071
:10583000FFFFFFEFFFFFFEFFFFFFFFFEFF7FC2FF47
:10584000FCF79CFE0200BB69D31A022B01D903238B
:105850002CE0184B1A6880239B041340F0D124E0FD
:105860007B685B6A012B01D101231FE0114B5B6850
:105870007B61104BDB6A3B617A69C0235B021A4093
:105880007B689B6A9A420ED13B690F221A407B6863
:105890001B6B9A4207D17A69F0239B031A407B68FD
:1058A000DB6A9A4201D0012300E000231800BD46C4
:1058B00008B080BD0010024080B584B000AF7860B1
:1058C00039607B68002B01D10123BFE0614B1B686D
:1058D000012213403A689A4211D95E4B1B6801229B
:1058E000934319005B4B3A680A431A60594B1B6893
:1058F000012213403A689A4201D00123A6E07B6856
:105900001B680222134015D07B681B6804221340D9
:1059100006D0514B5A68504BE021C9000A435A60E7
:105920004D4B5B68F022934319007B689A684A4BA1
:105930000A435A607B681B68012213404CD07B6885
:105940005B68012B07D1444B1A6880239B021340EC
:1059500020D101237AE07B685B68022B07D13E4BA4
:105960001A6880239B04134014D101236EE07B68E6
:105970005B68032B07D1384B5A6B80235B021340C3
:1059800008D1012362E0344B1B680222134001D18D
:1059900001235BE0304B5B680322934319007B6873
:1059A0005A682D4B0A435A60FCF7E8FD0300FB6080
:1059B00009E0FCF7E3FD0200FB68D31A274A934293
:1059C00001D9032342E0244B5B680C221A407B6818
:1059D0005B689B009A42ECD11E4B1B68012213406E
:1059E0003A689A4211D21B4B1B680122934319005B
:1059F000184B3A680A431A60164B1B680122134081
:105A00003A689A4201D0012320E07B681B68042297
:105A1000134009D0104B5B68114A134019007B6892
:105A2000DA680D4B0A435A6000F020F801000A4B77
:105A30005B681B090F2213400A4AD35C0A00DA4054
:105A4000094B1A600020FCF753FD00231800BD46E7
:105A500004B080BD00200240001002408813000006
:105A6000FFF8FFFFE4AA00080400002090B58FB003
:105A700000AF1423FB18384A13CA13C312681A6004
:105A80003B1D364A13CA13C312681A600023FB6217
:105A90000023BB6200237B6300237B6200233B6304
:105AA0002F4B5B68FB62FB6A0C2213400C2B47D028
:105AB00049D8042B02D0082B03D044E0294B3B6388
:105AC00044E0FB6A9B0C0F2213401422BA18D35CEB
:105AD0007B62234BDB6A0F2213403A1DD35CBB620F
