:020000040800F2
:1000000000400020513A0008E1390008EB390008AF
:1000100000000000000000000000000000000000E0
:10002000000000000000000000000000F13900089E
:100030000000000000000000FB390008053A00083D
:10004000A13A0008A13A0008A13A0008A13A000824
:10005000A13A0008A13A0008A13A0008A13A000814
:10006000A13A0008A13A0008A13A0008A13A000804
:10007000153A0008A13A0008A13A0008A13A000880
:10008000A13A0008A13A0008A13A0008A13A0008E4
:10009000A13A0008A13A0008A13A0008A13A0008D4
:1000A000A13A0008A13A0008A13A0008A13A0008C4
:1000B000A13A0008A13A0008A13A00082D3A000828
:1000C00010B5064C2378002B07D1054B002B02D02E
:1000D000044800E000BF0123237010BDD8000020B9
:1000E00000000000CCC40008044B10B5002B03D066
:1000F0000349044800E000BF10BDC04600000000F6
:10010000DC000020CCC400080023C25C0133002ABC
:10011000FBD1581E70470000002243088B4274D365
:1001200003098B425FD3030A8B4244D3030B8B42F8
:1001300028D3030C8B420DD3FF22090212BA030C01
:100140008B4202D31212090265D0030B8B4219D3E2
:1001500000E0090AC30B8B4201D3CB03C01A524102
:10016000830B8B4201D38B03C01A5241430B8B424A
:1001700001D34B03C01A5241030B8B4201D30B0333
:10018000C01A5241C30A8B4201D3CB02C01A52415A
:10019000830A8B4201D38B02C01A5241430A8B421D
:1001A00001D34B02C01A5241030A8B4201D30B0206
:1001B000C01A5241CDD2C3098B4201D3CB01C01A20
:1001C000524183098B4201D38B01C01A524143092A
:1001D0008B4201D34B01C01A524103098B4201D318
:1001E0000B01C01A5241C3088B4201D3CB00C01A85
:1001F000524183088B4201D38B00C01A52414308FD
:100200008B4201D34B00C01A5241411A00D2014621
:10021000524110467047FFE701B5002000F006F894
:1002200002BDC0460029F7D076E770477047C04648
:100230009E2110B5C905041C01F04CFE002803D115
:10024000201C00F019FC10BD9E21201CC90500F0E7
:100250004BFA00F011FC80231B069C466044F2E739
:1002600070B500220C4B04000D0001F0F9FD0028D0
:1002700004D12000290001F041FD70BD064B002291
:100280002000290001F0A8F901F038FD80231B06A9
:100290009C466044F1E7C0460000E041F0B54F469F
:1002A0004646D6464502C0B547000C1C6D0A3F0EB7
:1002B000C60F002F66D0FF2F6CD00023EA008025E8
:1002C00099469A46ED0415437F3F60026100430A58
:1002D0009846090EE40F002948D0FF2910D080224B
:1002E000D800D2040243904600207F394A463300AA
:1002F0007F1A02436C4992008A586340DBB29746EA
:10030000002B6DD10220FF3F33E0002398462600EA
:10031000454682465346022B00D17FE0032B00D195
:1003200094E0012B17D038007F3000285FDD6B0789
:1003300004D00F232B40042B00D004352B0103D510
:1003400038005A4B80301D40FE2867DCAD016D0A35
:10035000C0B202E01E0000200025C0052843F607B9
:100360003043E0BCBA46B146A846F0BD002B2BD1C5
:1003700001204A4633004E49024392008A586340A6
:10038000DBB29746002D13D104239946033B002787
:100390009A469AE7002D05D108239946063BFF2788
:1003A0009A4692E70C239946093BFF279A468CE729
:1003B000280001F099FD7627431F9D4000237F42CE
:1003C00099469A463F1A80E7180001F08DFD424693
:1003D000431F76219A404942091A9046002085E73A
:1003E000FF21032082E71E00FF200025B5E701233F
:1003F0001B1A1B2BAFDC9E372900BD40D9406A1E5B
:1004000095410D436B0704D00F232B40042B00D0E4
:1004100004356B0144D5012000259EE7FF2000250F
:100420009BE780250026FF20ED0396E700239846F2
:100430008020C003054209D04346034206D1454609
:1004400005436D022600FF206D0A86E78020C00369
:1004500005436D02FF206D0A7FE741466A014801AE
:10046000824219D21B210025013F012614006D0094
:100470005200002C01DB904201D8121A3543013999
:100480000029F3D1501E824138007F301E001543F1
:10049000002800DD4BE7AAE71A210125121AE4E73C
:1004A000AD0100206D0A58E70CC60008FFFFFFF7FA
:1004B0004CC60008F8B557464E464546DE4644024F
:1004C000E0B545000F1C640A2D0EC60F002D47D065
:1004D000FF2D4DD0002380209A469B46E400C004A7
:1004E00004437F3D7802430A99467A00FB0F984601
:1004F000120E4B4644D0FF2A11D0D8008023DB04D3
:100500000343994600207F3AAD184746534677404B
:10051000691C0F2B3FD8724A9B00D3589F46FF356A
:10052000002B00D079E0524602231A439246022063
:10053000EBE747464C4683465B46022B28D0032B0D
:1005400000D1C6E0012B4FD100200024C005FF07D9
:1005500020433843F0BCBB46B246A946A046F8BD8E
:10056000002C71D104239A46033B00259B46B9E732
:10057000002C63D108239A46063BFF259B46B1E732
:10058000002B50D1524601331A4392460120BCE75A
:10059000FF200024DAE74846260C2404220C040439
:1005A000240C4B4620001B0C504374435A435E43BB
:1005B0001219030C9B189C4203D9802252029446C4
:1005C000664400041A04000C12189401601E844151
:1005D0001B0C920E9B1914439B011C431B0172D5EB
:1005E0000120630804401C4308007F3000283CDDE4
:1005F000630704D00F232340042B00D004342301CD
:1006000003D580310800374B1C40FE28C0DCA40114
:10061000640AC0B29AE737008EE7524603231A43B2
:100620009246032071E7484601F05EFC4A46431FAC
:100630009A402D1A91460020763D66E70C239A4693
:10064000093BFF259B464DE7200001F04DFC762538
:10065000431F9C4000236D429A469B462D1A41E75A
:1006600080240027FF20E40370E701231B1A1B2BC3
:1006700000DD69E79E3120008C40D840631E9C411C
:100680000443630704D00F232340042B00D0043419
:1006900063011AD50120002458E78020C0030442DA
:1006A00009D04B46034206D14C46044364024746F8
:1006B000FF20640A4AE78020C00304436402370035
:1006C000FF20640A42E729008EE7A4010020640AA3
:1006D0003CE78020C00304436402FF20640A35E73E
:1006E0008CC60008FFFFFFF7F0B54646D6464F46DA
:1006F00043025B0ADA0094464A02C0B54400560A37
:10070000051CB046240E4E0092091F0020009246A0
:10071000ED0F360EC90FFF2E00D17FE001225140B0
:100720008D4251D0A21B9146002A00DC7EE0002EB3
:1007300000D199E0FF2C00D18CE080235246DB04ED
:100740001A4392464A4601231B2A08DC53462021BD
:10075000D340891A52468A40511E8A411343624649
:10076000D31A5A0100D4F3E09B019E09300001F036
:10077000BBFB05388640844200DDF7E03200041BF5
:1007800020200134E240041BA64033005E1EB3412A
:10079000002413435A0704D00F221A40042A00D021
:1007A00004335A0100D4D6E0621CFE2C00D1DAE0FA
:1007B0009B015F0AD0B2C0053843ED072843E0BC77
:1007C000BA46B146A846F0BDA21B9146002A63DD99
:1007D000002E00D199E0FF2C3CD080235246DB0450
:1007E0001A4392464A4601231B2A08DC534620211D
:1007F000D340891A52468A40511E8A4113436344AA
:100800005A0100D4A4E00134FF2C00D1ABE0012256
:1008100097491A405B080B401343BBE7002A32D0CC
:100820008D4235D0FF2252429146A1444A46002AC9
:1008300051D0301B002C00D09CE06346002B00D12F
:10084000DFE00138002800D1F7E0FF2E00D099E06A
:100850000D004346002B00D185E08027FF031F4396
:100860007F02FF207F0AA6E75246002A74D00122A9
:1008700052429046C1444A46002A00D1C8E0FF2CAB
:1008800000D05FE7E6E701225140A94200D049E7E6
:10089000FF2252429146A1444A46002A43D0311BCE
:1008A000002C00D18CE0FF2E00D192E08023624624
:1008B000DB041A43944601231B2909DC20206346EC
:1008C0006246CB40411A8A401100481E81410B43C9
:1008D0003400534494E7FE22661C324264D1002C5B
:1008E00000D082E06346002B00D1ABE05346002BE2
:1008F00000D160E7634652469B1A5A0100D4AAE031
:10090000634652460D00D31A44E75246002A23D0CC
:10091000012252429046C1444A46002A75D0FF2C1B
:1009200000D05FE796E7FE260134264253D1002827
:1009300072D16346002B00D193E05346002B00D1C7
:1009400039E7634400245A0102D54A4A013413406E
:100950005A0700D020E7DB08FF2C00D17AE75B02C2
:100960005F0AE0B227E7FF20002724E7414B241A63
:1009700033400FE7FF2E00D16AE780236246DB0495
:100980001A43944601231B2809DC2024634662464F
:10099000C340201A82401000441EA0410343524627
:1009A0000D003400D31ADCE6634652469E1A7301EA
:1009B00017D4002E00D0D9E6002500200027FAE643
:1009C0006346002B44D0013900294CD0FF2E00D0C3
:1009D00071E743463EE7FF2CC5D0524662445308B8
:1009E000B6E763460D00D61AC0E66246002A16D165
:1009F0005346002B00D02BE780270025FF20FF0364
:100A0000D9E60D0043463400A6E753466344F7E6B3
:100A1000634652469B1AA4E66246002AD9D0524643
:100A2000002A00D116E78022D203134200D111E739
:100A30004046104200D00DE70AE752460D00340050
:100A4000D31A8EE65346002B08D00D004746B2E677
:100A50004346340080E7002B00D079E700250027CB
:100A6000A9E64746A7E6534634006344C8E6C046B5
:100A7000FFFFFF7DFFFFFFFB41024200C30F490A5A
:100A80000020120E7E2A03D99D2A02D9094A9818FD
:100A90007047802000040143952A07DC9620821AC3
:100AA000D1404842002BF3D10800F1E7963A91403B
:100AB000F7E7C046FFFFFF7F70B5051E0ED001F0BF
:100AC00013FA9E2304001B1A962B0CDC082801DD68
:100AD000083CA5406D026D0AD8B201E00020002557
:100AE000C005284370BD992B09DD020029001B3287
:100AF00091404A1E91410522121AD5400D43052C02
:100B000001DD621F95402900084E31406A0709D077
:100B10000F202840042805D004314A0102D59F2324
:100B200031401B1B89014D0AD8B2D9E7FFFFFFFBFB
:100B3000F0B557464E464546DE46E0B581460500CF
:100B40000C03480092461F0085B0240B400DCE0FC9
:100B5000002859D0874B984200D198E06B0FE400F1
:100B60001C4380231B0423439846834BED009B4684
:100B700000239946834400933C037B005046240B9A
:100B80005B0DFF0F002B67D07A4A934218D07A4949
:100B9000420F8C46E40059461443802263441204F9
:100BA000CB1A14439B46C200002033007B409A4678
:100BB0004B460F2B00D9EFE070499B00CB589F4666
:100BC0006F4B52469C462243E344002A00D095E0F6
:100BD000494602231943894600240220E5E7002301
:100BE0000024002552461B052343D2071343280047
:100BF000190005B0F0BCBB46B246A946A046F0BD00
:100C0000002400255B4BEDE74B462343984600D17B
:100C100089E0002C00D1E0E1200001F065F901003D
:100C200002000B391D235B1A49461000D9400838D1
:100C300084400B004D4623439846854051483C0371
:100C4000831A9B460023994600937B005046240B51
:100C50005B0DFF0F002B97D15246224355D0002C3D
:100C600000D1CAE1200001F03FF902000B3A1D2338
:100C700001009B1A52460839DA408C401443524610
:100C80008A40414B58449B46834400208DE74B46A5
:100C90002343984640D108239946063B00258346C6
:100CA000009369E7B246009B022BA9D0032B00D129
:100CB00011E2012B93D0354A5A44002A00DC3CE172
:100CC0006B0700D0A7E1ED084346DB0106D542469D
:100CD0002F4B1A4090468022D2005A442D4B9A4204
:100CE0008EDC4346520558075C020543240B530D26
:100CF00078E7BA46A04615000090D4E74A46032399
:100D00001A439146032052464FE7494601231943AF
:100D100089460024012048E70C239946093BA04658
:100D20008346009328E70423994600239B4601331A
:100D30000025009320E7002380249A4600250D4BD0
:100D400024034FE7802341461B03194208D01C426D
:100D500006D11C432403BA461500064B240B41E779
:100D60008024434624031C432403B246014B240B36
:100D700038E7C046FF07000001FCFFFFCCC60008B3
:100D800001F8FFFF0DFCFFFFF3030000FF0300006D
:100D9000FFFFFFFEFE070000444500D216E100D130
:100DA00011E101235B429C462E0040460025E344AE
:100DB0002302140E1C431B0C994623041F0C120221
:100DC000494600920197FFF72DFA02007A430B047F
:100DD000310C804619438A420BD901235B429C4661
:100DE0000919E0448C4204D88A4202D9831E9846ED
:100DF0000919881A4946FFF715FA09048C46310487
:100E00006646019A090C4243030031438A4204D9E1
:100E10000919013B8C4200D811E1891A4246009E13
:100E200012041A43330C1F00100C90460293130453
:100E30003204160C32001B0C5A4303967B43464384
:100E40007843170CBC469B1963449E4203D9802605
:100E50007602B44660441E0C301816041B04360C8F
:100E60009E19814200D29CE000D197E0AE1B091A86
:100E7000B54280414042081A844200D111E14946FE
:100E8000FFF7D0F9019A0B044243310C05001943D6
:100E90008A4207D90919013D8C4203D88A4201D9F7
:100EA000851E0919881A4946FFF7BCF909048C46C2
:100EB00031046646019A090C4243030031438A42D9
:100EC00007D90919013B8C4203D88A4201D9831EF4
:100ED0000919039E891A32002D041D43029F2B0419
:100EE0001B0C5A437B439C46280C4643130CB444CA
:100EF000634478439E4203D980267602B446604418
:100F00001E0C12041B04120C30189B18814206D3CD
:100F100002D001231D43CEE6002B00D1CBE66118A1
:100F20006E1EA14200D2A4E0814200D2C9E000D1ED
:100F3000D9E03500EDE701256D420121891A3829F4
:100F400000DD4CE61F2900DC7FE01F235B429A1A7C
:100F50004346D340202904D04446654A5A4494402D
:100F600025436A1E954107222B43150000241D408E
:100F70001A4200D1A1E00F2200241A40042A00D115
:100F800098E01A1D9A429B415B42E418130022022A
:100F900000D48FE001230024002523E6B54200D3CE
:100FA00064E743465A1E009B9C4665441F009D42D1
:100FB0009B415B421B19C9188C423AD2884263D8C4
:100FC00060D0904652E7AA4200D9EAE64346DE07DF
:100FD00058086B081E43ED07EAE6484600F084FF18
:100FE00001000200153120321C2900DC1AE64B46B4
:100FF000083883400025984620E600F075FF03007E
:101000001A00153220301C2A00DC30E65446083B1A
:1010100000229C4035E60F232B40042B00D152E6E2
:1010200005235B42AB429B4104355B42ED0898448B
:101030004AE68C42C5D1AF42C0D9904616E78A42F3
:1010400000D8EAE6831E0919E7E62A4A28005A442E
:10105000434695409340C8406A1E95414446034329
:101060002B43CC405A0792D00F221A40042A88D131
:101070008DE73500814200D04BE7009A934200D0C3
:1010800047E718E6AE429CD902235B429C46009B90
:10109000E0449C4665449D429B415B421B19C91834
:1010A000E4E6154A5A44002A00DC44E701230025FF
:1010B000984409E665076402240BDB081D430023FE
:1010C00090E5009E023D7200B242BF417F423C1952
:1010D00009190092CEE78024434624031C432403CD
:1010E000064B240B7EE5009A9A42EAD33500C4E70A
:1010F0003E0400001E040000FF030000FF07000084
:10110000F0B557464E464546DE46E0B598460C03D8
:101110004B000600924687B0240B5B0DCF0F002BCF
:101120006CD0DD4A934200D186E0420FE4001443C4
:10113000802212041443D94AC500944663440093A4
:10114000002399469B46434642461E03D20F5B004E
:1011500050469046360B5B0D00D178E0CE4A934264
:101160001DD0CE49420F8C4600996344F6008C4650
:10117000164380229C44120463461643C20000209A
:1011800000930099434601318C4649467B400193C8
:101190000F2900D97EE0C24B890059588F4652462C
:1011A000009B324300D056E1BB4900268C46634485
:1011B000494600930223194389460220E1E743464A
:1011C00001933400150083465B46022B5ED0032B4F
:1011D00000D1F3E1012B00D018E10022002400250A
:1011E000019B12052243DB071A432800110007B0B8
:1011F000F0BCBB46B246A946A046F0BD250005435B
:1012000000D141E1002C00D1ADE1200000F06CFEE6
:10121000010002000B391D2310005B1A310035005C
:1012200008388440D94085400C439E48831A009377
:10123000002399469B4686E70500254300D01CE124
:10124000082200930223002491469B467BE75246E6
:10125000324300D10AE1002E00D176E1300000F0E7
:1012600043FE02000B3A1D2301009B1A5246083927
:10127000DA408E40164352468A40009B8949181A2C
:1012800003008C466344002000937AE70024002585
:10129000814AA5E72F0C2D042D0C2B00110C1204F4
:1012A000120C53439846130028007B439946484349
:1012B0004844834640460B00000C824658467B4318
:1012C00050440293814506D99A4680235B02994691
:1012D000CA4453460293030C9B4643461B04000436
:1012E0001B0C9846030043440493330C99462B008F
:1012F0003604360C7343984633007B439A464B467C
:101300005D435F4343465544180C4019824503D959
:1013100080235B029A465744050CEB19059343461C
:101320001D042D0C00044019250C2404240C270056
:1013300057436A4390462A003B0C9A464A4361430E
:10134000414451448344884503D980235B02984635
:1013500042443F040B0C3F0C0904C919270098466E
:101360004B4677435C436E435D433B0C9946A4195F
:101370004C4442440395A64204D980235B0298461C
:1013800045440395029B3F045B441E008342804119
:1013900023049846059B3F0C4744984676188E4296
:1013A0008941474440423D18A846934649428A46EF
:1013B000C3449F42BF4180458041039BDA44984625
:1013C000534640427F420743240C934592418A454D
:1013D00089413F19DC0D049B75021D43681E854140
:1013E0005346524249420A43BF184744F60D7F0212
:1013F00035435A023C431543FB0100D4C1E00121AF
:101400006A080D401543E207154364082649614404
:10141000002956DD6B0709D00F222A40042A05D087
:101420002A1DAA42AD416D4264191500E30104D59D
:1014300080211E4AC900144061441D4A914200DDCA
:1014400024E76207ED08640249051543240B4A0DA1
:10145000C6E60197B8E6104A0320944663444A461C
:10146000009303231A43914652468AE649460123D4
:10147000194389460026012083E60C2200930323AA
:10148000050091469B465EE604239946002300939F
:10149000013300249B4656E6FF07000001FCFFFFD6
:1014A0000CC700080DFCFFFFFF030000FFFFFFFE5D
:1014B000FE070000002380240025444A01932403F2
:1014C0008EE60120401A382800DD86E61F285BDD05
:1014D0001F2223005242511ACB401900202803D06A
:1014E0003B4A6244944025436A1E95412A000A43C0
:1014F00007210D000024154011425BD00F2100246C
:101500001140042953D0111D914292415242A41816
:101510000A0023024BD501220024002560E6802327
:101520001B031C4209D01E4207D133431C03434610
:101530001500240B254A019352E68022120314431E
:101540002403224A240B01974AE600F0CDFC030055
:101550001A00153220301C2A00DC84E65646083B6F
:1015600000229E4089E600F0BFFC01000200153118
:1015700020321C2900DC4EE6340008380025844067
:1015800053E6009B9C4641E71249220061442E002D
:101590008D408A40C640691E8D4132432A43C44073
:1015A0005307B6D00F2111400429ACD1B1E765072C
:1015B0006402240BD2081543002211E68022120394
:1015C00014432403014A240B0AE6C046FF07000027
:1015D0003E0400001E040000F8B557464E4645463E
:1015E000DE460400E0B51F0010000B03620F4E0042
:1015F000CD0F5B0A39031343490AE200440F21432C
:10160000C24C91469246C0007A008046760D520D3B
:10161000FF0FA24200D1B4E001246740BB46BD42A7
:1016200000D188E0B41AA446002C00DCB2E0002A05
:1016300000D1C5E0B54A964200D18BE28022120467
:1016400011436246382A00DDA1E11F2A00DD16E2BF
:1016500020270C00BF1ABC400200A0466446B840D8
:10166000E240444614430200501E82416046C1409D
:1016700022435B1A49468C1AA145924152429B1A59
:10168000984643461B0200D417E143465B025B0ABF
:1016900098464346002B00D16CE1404600F024FC04
:1016A0000200083A202120004346891A9340C8408E
:1016B00094400343964200DD57E1961B711C1F299D
:1016C00000DDCBE1202218002600521A9440904001
:1016D000CE40CB40621E94413043984600260443DE
:1016E000630709D00F232340042B05D0231DA342F9
:1016F000A4416442A0441C0043461B0200D4DFE026
:10170000824B01369E4200D1FBE04246804BE4080A
:101710001A401300710552075B0222431B0B490D4F
:101720000905ED07194329431000F0BCBB46B2463A
:10173000A946A046F8BDB41AA446002C58DD002ADC
:1017400000D19EE0714A964200D13BE18022120412
:1017500011436246382A00DDC1E01F2A00DCBBE1EC
:101760000C00203AD44022006446202C04D04027AC
:101770003F1BB940084380464446611E8C411443D8
:10178000B1E00C0004432AD0BB46BD422DD0614CD1
:10179000A446B4446446002C5CD0941BA446002E9E
:1017A00000D015E14D461D4300D1C3E1651E012C5B
:1017B00000D10CE2554EB44200D1F8E1AC460EE146
:1017C0000A00024300D136E12200013A012C00D187
:1017D000C6E14E4CA44500D1F4E0944631E7012423
:1017E0006740BB46BD4200D01CE74A4CA446B44407
:1017F0006446002C00D1CFE0941BA446002E00D1FB
:101800005CE1424EB24200D1ECE180263604334323
:101810006446382C00DDB3E11F2C00DD38E22026C1
:10182000361B1C00B4404F46A0466446E740444681
:101830003C434F46B7403E00771EBE4134436646A8
:10184000F340C918241884429B415B429846160015
:1018500088444EE0304A741C144200D0D6E04A4618
:101860001A43002E00D05BE1002A00D1A5E10A0056
:10187000024300D0BBE14A465907D2080A43DB08BD
:1018800027E00A00024300D174E12200013A012C52
:1018900005D01E4CA44500D194E0944659E7484435
:1018A000484592415B189846040052429044434692
:1018B00002261B0200D5C4E0013E630700D011E7F9
:1018C0004346B4465907E2080A43DB080F498C45F2
:1018D00040D061461B0349051B0B490D20E701431E
:1018E0000C00611E8C414C444C4592415242904642
:1018F000984443461B02E0D5044B01369E4200D07B
:101900009FE03100002300220AE7C046FF070000E5
:10191000FFFF7FFF01F8FFFFFE070000002A00D154
:1019200060E10A0002434DD04A465C07D2082243D8
:101930008024DB082403234207D0CE08264204D1AA
:101940005D463300C20849070A43510FD200D2084E
:1019500049070A431100194300D1C8E18021090356
:101960000B431B03D5491B0BDAE6D549B61A0B40CE
:101970009846B5E6200000F0B7FA020018321F2A98
:1019800000DC8FE6230008388340002492E60843F9
:101990000200501E82416DE6CA4C721C224200D0E9
:1019A000ADE04A461A43002EB8D1002A00D158E1D2
:1019B0000A00024300D059E14A465907D2080A43B7
:1019C000DB0886E74A465907D2080A43DB08C1E725
:1019D000BA4DAA4200D11EE180252D042B43644656
:1019E000382C5DDC1F2C00DDD0E0202567462D1B48
:1019F0004E461C00FE40AC4034434E46AE403500DF
:101A0000FB406E1EB541C91A2C434EE04A46141ADB
:101A1000A1459241524290465F1A3A004746D21B76
:101A20009046120200D58BE04246224300D030E6B9
:101A3000002300254DE74A465907D2080A43DB0830
:101A400044E742469E4B61081A40130001221440AD
:101A50000C43DA075B089846144341E61A001F3E20
:101A6000F2401600202903D04022511A8B401C431B
:101A7000621E944100233443984600261DE70C0063
:101A8000203AD44022006446202C04D040273F1B3B
:101A9000B940084380464446611E8C412243E9E533
:101AA0004C4623431C00631E9C41041BA0429B41E7
:101AB0005B42CB1A98465D461600E2E54E461E4351
:101AC00000D1AEE0661E012C00D1FDE07B4FBC4290
:101AD00000D107E1B4469BE664462022121B0C00AD
:101AE000944007009040A0466446421E90416246E2
:101AF000E7404446D1403C4304435B18F3E66F4C57
:101B0000A24200D1D5E048445B184845894149428A
:101B10005B18DC0740085B08984616000443CCE6D7
:101B2000002A00D082E00A00024340D18023002531
:101B30001B0313E74B07C2081A435D46CB08C5E6F3
:101B40004A46841AA0429241CB1A52429B1A9846A6
:101B50005D469EE54A465907D2080A43DB08F9E686
:101B60004A46141AA14592415B1A52429B1A984662
:101B7000012686E54A465907D2080A43DB08A5E64E
:101B80004C4623431C00631E9C415BE665461E00D9
:101B9000203DEE40202C05D040252D1BAB404C466F
:101BA0001C43A2465446631E9C4134437DE74B07C9
:101BB000C2081A435D46CB08CCE60A00024300D1B6
:101BC00036E74B07C2081A435D46CB0881E64A4612
:101BD000841AA0429241CB1A52429B1A98465D4603
:101BE00001264EE54B07C2081A43CB08B2E64A4627
:101BF000141AA14592415F1A5242BA1A9046120233
:101C00006BD54A46841AA0429241CB1A52429B1A83
:101C100098465D4664E54B07C2081A435D46CB080B
:101C200098E64B07C2081A43CB084FE60A00024366
:101C300090D04A465C07D20814438022DB08120386
:101C4000134208D0CE08164205D1C0084907084300
:101C500004005D463300610FE2004907D2080A43E1
:101C600078E64B07C2081A43CB0832E648445B18B3
:101C700048459241984652429044434604001B0214
:101C800000D41AE642460E4B01261A40904614E64E
:101C900066461F00203EF740202C05D04026361B0C
:101CA000B3404C461C43A2465446631E9C413C43F1
:101CB000C8E511000023002232E5C046FF070000FE
:101CC000FFFF7FFFFE0700004A461418844292413E
:101CD0005B18984652429044E9E54246224300D1BF
:101CE000A6E6EAE54B07C2081A43CB0832E6002213
:101CF0000149130014E5C046FF0700000A0030B593
:101D0000134C530009030500090B00205B0DD20F93
:101D1000A34204DD0F48834202DD0F4BD01830BDD3
:101D20008020400301430D48C01A1F2808DD0C48DD
:101D3000C31AD9400B005842002AF0D11800EEE730
:101D4000084CC540A446634499400B002B43F2E77E
:101D5000FE0300001D040000FFFFFF7F33040000AE
:101D600013040000EDFBFFFF70B543004602C40FF3
:101D7000FE201B0E591C750A08420CD0E02292006E
:101D800094466D07360B63441B053343E407234336
:101D90002800190070BD002B14D1002D1BD0280085
:101DA00000F0A2F80A281CDC0B232A001B1ADA40D8
:101DB000030015339D400E4B12031B1A5B05160BD7
:101DC0005B0DE1E7002D09D0320B80263603094B6D
:101DD0006D071643D8E700230026D5E70026054BFC
:101DE000D2E703002A000B3B9A400025E3E7C046F8
:101DF00089030000FF0700008446101C62468C46E1
:101E0000191C634600E0C0461FB500F0F7F9002832
:101E100001D40021C8421FBD10B500F041F9404275
:101E2000013010BD10B500F0E9F9002801DB0020F9
:101E300010BD012010BDC04610B500F0DFF900282C
:101E400001DD002010BD012010BDC04610B500F01E
:101E500063F9002801DC002010BD012010BDC04640
:101E600010B500F059F9002801DA002010BD01205A
:101E700010BDC0468446081C6146FFE71FB500F050
:101E8000C5F8002801D40021C8421FBD10B500F0DC
:101E900049F84042013010BD10B500F0B7F80028F5
:101EA00001DB002010BD012010BDC04610B500F0C0
:101EB000ADF8002801DD002010BD012010BDC04696
:101EC00010B500F057F8002801DC002010BD0120FB
:101ED00010BDC04610B500F04DF8002801DA002012
:101EE00010BD012010BDC0461C2101231B049842D7
:101EF00001D3000C10391B0A984201D3000A08399B
:101F00001B09984201D30009043902A2105C401851
:101F10007047C046040302020101010100000000F5
:101F20000000000070B542004E024C0045026D0AF0
:101F3000120EC30F760A240EC90FFF2A0FD0FF2CF2
:101F400011D00120A24200D070BDB542FCD18B421D
:101F50000DD0002AF8D12800451EA841F4E7012041
:101F6000002DF1D1EBE70120002EEDD1E9E70020B3
:101F7000EAE7C046F0B5420046024D024C00C30FEE
:101F8000760A120E6D0A240EC80FFF2A1FD0FF2CEE
:101F900010D0002A1FD171427141002C01D1002DB7
:101FA0001ED000290ED183421ED00221581E0840A7
:101FB0000138F0BD002D26D1002AF4D171427141C3
:101FC0000029F0D00028F4D101204042F1E7002E92
:101FD00019D1FF2CEED0002CE5D1002DE3D1E4E7A0
:101FE0000020002EE5D0E0E7A24205DCEADBAE42AD
:101FF00002D8E7D30020DCE74142414148420221B8
:1020000008400138D5E702204042D2E7F0B542004F
:1020100046024D024C00C30F760A120E6D0A240EC2
:10202000C80FFF2A0DD0FF2C0FD0002A23D17142F8
:102030007141002C0FD1002D0DD10020002E14D0A5
:102040000DE0002E10D1FF2C15D1002D0CD1002A4F
:1020500003D171427141002908D1834210D002217D
:10206000581E0840013800E00220F0BD0028FCD1D5
:1020700001204042F9E7002CEFD1002DEDD1EEE731
:10208000A24205DCF2DBAE4202D8EFD30020ECE73F
:10209000414241414842022108400138E5E7C0463B
:1020A000F0B54F464646D646944691461A03120B63
:1020B000184DC0B54C000F0392465A0006008046EA
:1020C0003F0B0120640DC90F520DDB0FAC420AD04B
:1020D000AA4203D0944201D157450DD0E0BCBA4684
:1020E000B146A846F0BD3D003543F7D1A242F5D137
:1020F000524665462A43F1D10120C845EED19942A6
:1021000006D0002CEAD13E433000461EB041E5E740
:102110000020E3E7FF070000F0B54E46454657466E
:10212000DE4604001800E0B516001B031B0B324D01
:102130000F034A0099464300A446B0463F0B520D98
:10214000C90F5B0DC00FAA4229D0AB4218D0002A9C
:102150002AD13C43A34665426541002B02D14C463F
:10216000264327D0002D15D1814228D002200139E5
:1021700008400138F0BCBB46B246A946A046F0BDB7
:102180004D462E432FD1002AEED13C436542654196
:10219000002DE9D00028EDD101204042EAE73D00C2
:1021A000254320D19342EBD0002BDDD14C46264372
:1021B000DAD1DBE75B460020002BDBD0D6E79A4282
:1021C0000ADCE7DB4F45D1D810D000204F45D1D2F3
:1021D0000029E1D00800CDE74342584102234042A4
:1021E00018400138C6E702204042C3E7C445BDD8C5
:1021F0000020C445BED2EBE7FF070000F0B54E4615
:1022000045465746DE4604001800E0B516001B039D
:102210001B0B314D0F034A0099464300A446B046BC
:102220003F0B520DC90F5B0DC00FAA4211D0AB423C
:1022300014D0002A2FD13C43A34665426541002BB0
:1022400014D14C46264311D15B460020002B17D0F9
:1022500010E03D00254312D193421CD14D462E4340
:102260000DD1002A04D13C4365426541002D0DD1BA
:10227000814216D0022001390840013800E00220D6
:10228000F0BCBB46B246A946A046F0BD0028F7D137
:1022900001204042F4E7002BEAD14C462643E7D127
:1022A000E8E79A4206DD4342584102234042184083
:1022B0000138E5E79A42E9DB4F45DBD806D000203C
:1022C0004F45DDD20029E3D00800D9E7C445D1D875
:1022D0000020C445D4D2F5E7FF070000B0B5AAB08E
:1022E00000AF39601100FB1D021C1A70BB1D0A1CD7
:1022F0001A70FB1D1B782F4A94466344DB02A0240E
:102300003A19136020257B198022FF2118000AF05A
:10231000BCF8BB1D1A7839687B1918000AF0ACF8B4
:1023200002F0AEFB0C217B1800221A607B183A19D0
:1023300012685A607B1801229A600023BB60082350
:10234000FA187B181100180002F05AFCA723FB189A
:1023500000221A7022E0A7243B191B789B011A0067
:10236000A0257B191B689B187A1913603B191B78F1
:10237000DB002022BA18D1181823FB1808221800F5
:102380000AF07AF8BA69FB6979190968032002F042
:10239000E1FA3B191A783B1901321A70A723FB188E
:1023A0001B780F2BD7D902F091FB00231800BD46F4
:1023B0002AB0B0BD1A00010090B5A7B000AF786098
:1023C00008001100FB1C021C1A70BB1C0A1C1A70AE
:1023D000FB1C1B78224A94466344DB029022BA1805
:1023E00013601023FB188022FF2118000AF04DF81B
:1023F0009723FB1800221A7020E097217B181B7886
:102400009B001A0090203B181B689B183A18136019
:102410003B181B681B68FB600C007B181B789B003B
:102420001022BA18D3180C22B918042218000AF086
:1024300023F83B191A783B1901321A709723FB18BD
:102440001B781F2BD9D9BB1C1A781023F9187B686D
:1024500018000AF011F800231800BD4627B090BDFF
:102460001A00010090B589B000AF78600A00BB1C6B
:102470001A800C243B19180014231A0000210AF0BA
:1024800004F8BB1C1A8821007B181A607B180122F3
:102490005A607B1800229A607B180322DA607A184F
:1024A0007B681100180002F057FCC046BD4609B019
:1024B00090BD90B589B000AF78600A00BB1C1A804F
:1024C0000C243B19180014231A00002109F0DDFF29
:1024D000BB1C1A883B191A603B1900225A603B1931
:1024E00002229A603A197B681100180002F034FC4D
:1024F000C046BD4609B090BD80B584B000AF3B1D5D
:1025000018000C231A00002109F0BFFF3B1D062212
:102510001A603B1D802252015A603B1D06229A60C0
:102520003A1D064B1100180001F014FE031E01D0E5
:1025300000F04AFFC046BD4604B080BD3404002010
:1025400080B584B000AF3B1D18000C231A00002199
:1025500009F09BFF3B1D07221A603B1D80225201A0
:102560005A603B1D06229A603A1D064B1100180066
:1025700001F0F0FD031E01D000F026FFC046BD466D
:1025800004B080BD3404002080B500AF294B180092
:1025900005F034FA284B00220121180002F071FDE9
:1025A00080239B0124480122190002F06AFD224B7E
:1025B00000220421180002F064FD8023DB001E4885
:1025C0000122190002F05DFD80231B011A4801223F
:1025D000190002F056FD80235B0117480122190003
:1025E00002F04FFD00F0F5FE192001F0BFFA00F0F7
:1025F0001DFF192001F0BAFA01F068F80F4B2022F4
:1026000002211800FFF7D8FE0C4B19780B4B5A78B3
:102610000A4B9B78082000F0C7FF084BD978074B7E
:102620001A79064B5B790C2000F0BEFFC046BD4610
:1026300080BDC046E403002000040048840100205F
:1026400080B582B000AF0A4B7B607A68094B1100FD
:10265000180009F022FF7B681800FDF755FD030004
:10266000DAB2054B1A70C046BD4602B080BDC04606
:10267000E4C40008000100208001002080B582B081
:1026800000AF0A4B7B607A68094B1100180009F013
:1026900004FF7B681800FDF737FD0300DAB2054B35
:1026A0001A70C046BD4602B080BDC046E8C40008EE
:1026B000000100208001002080B500AF80239B0135
:1026C00004480022190002F0DCFCFFF7D7FFC046E7
:1026D000BD4680BD0004004880B500AF80239B014B
:1026E00004480122190002F0CCFCFFF7C7FFC046E6
:1026F000BD4680BD0004004880B500AF054B0022F8
:102700000121180002F0BDFCFFF7B8FFC046BD462E
:1027100080BDC0460004004880B500AF054B0122D3
:102720000121180002F0ADFCFFF7A8FFC046BD462E
:1027300080BDC0460004004880B500AF114B0022A8
:102740000421180002F09DFC0A2001F00FFA8023FA
:10275000DB000C480122190002F093FC80231B01CE
:1027600008480122190002F08CFC80235B01054817
:102770000122190002F085FCFFF780FFC046BD462C
:1027800080BDC0460004004880B500AF8023DB0058
:1027900010480022190002F074FC0A2001F0E6F94A
:1027A0000C4B01220421180002F06BFC80231B015A
:1027B00008480122190002F064FC80235B010548EF
:1027C0000122190002F05DFCFFF758FFC046BD462C
:1027D00080BDC0460004004880B500AF80231B01C7
:1027E00010480022190002F04CFC0A2001F0BEF94A
:1027F0000C4B01220421180002F043FC8023DB0073
:1028000008480122190002F03CFC80235B010548C6
:102810000122190002F035FCFFF730FFC046BD462B
:1028200080BDC0460004004880B500AF80235B0136
:1028300010480022190002F024FC0A2001F096F949
:102840000C4B01220421180002F01BFC8023DB004A
:1028500008480122190002F014FC80231B010548DE
:102860000122190002F00DFCFFF708FFC046BD462B
:1028700080BDC0460004004880B584B000AF7860D9
:102880000023FB607B681B781B031A00FB68134363
:10289000FB607B6801331B781B011A00FB68134344
:1028A000FB607B6802331B781B09DBB21A00FB68F4
:1028B0001343FB60F868FEF7FFF8031C181CFFF7D2
:1028C00053FA00221C4BFEF733F902000B001000F4
:1028D0001900C022D205194BFEF712FC02000B00B2
:1028E00010001900C0221206154BFEF775FE0200FB
:1028F0000B0010001900A0221206124BFEF718F967
:1029000002000B001000190000220F4BFEF7F8FB2D
:1029100002000B0010001900FDF7A2FC0300BB60D1
:10292000BB680A480022002101F065FFFFF7A6FE00
:10293000C046BD4604B080BD000020418FC20340A8
:102940007493783F47E1084000FEAF40D003002079
:1029500080B582B000AF00F0C9FEFA235B0018001A
:1029600001F004F93A0001323B000233390008203B
:1029700000F065FE390003313A0004323B000533B4
:102980000C2000F05CFE3B00062219000220FFF73D
:10299000A5FCFFF773FEC046BD4602B080BD000037
:1029A00080B582B000AF00F087FA031E0BD0104B49
:1029B00006221A700E4B1B781A000E490E4B180097
:1029C00009F05AFD0FE00D4B7B607A680A4B11004D
:1029D000180009F062FD7B681800FDF795FB030005
:1029E000DAB2034B1A70C046BD4602B080BDC04685
:1029F000800100202C04002000010020ECC400080D
:102A000080B500AF094B202201211800FFF7D4FC4C
:102A1000074B06221A70064B1B781A000349054B18
:102A2000180009F029FDC046BD4680BD8401002084
:102A3000800100200001002080B582B000AF7860E6
:102A40007B68062219000120FFF748FCC046BD46FE
:102A500002B080BD80B500AF094B202203211800D1
:102A6000FFF7AAFC074B08221A70064B1B781A00C6
:102A70000349054B180009F0FFFCC046BD4680BD68
:102A800084010020800100200001002080B582B078
:102A900000AF78607B68082219000320FFF71EFC56
:102AA000FFF7ECFDC046BD4602B080BD80B500AF6B
:102AB000094B202202211800FFF77EFC074B06225B
:102AC0001A70064B1B781A000349054B180009F0D1
:102AD000D3FCC046BD4680BD84010020800100209B
:102AE0000001002080B582B000AF78607B680622CC
:102AF00019000220FFF7F2FB7B6819787B6801332D
:102B00001A787B6802331B78082000F04DFD7B6843
:102B1000033319787B6804331A787B6805331B7894
:102B20000C2000F041FDFFF7A9FDC046BD4602B0F4
:102B300080BD000080B500AF924B1B78072B0BD1F6
:102B4000914B1B6891490722180009F0AEFC031E47
:102B500002D1FFF7B1FD12E18A4B1B78082B0BD194
:102B6000894B1B688A490822180009F09EFC031E45
:102B700002D1FFF7B1FD02E1824B1B780E2B0BD186
:102B8000814B1B6883490E22180009F08EFC031E3E
:102B900002D1FFF7B1FDF2E07A4B1B780D2B0BD180
:102BA000794B1B687C490D22180009F07EFC031E3E
:102BB00002D1FFF7B1FDE2E0724B1B78072B0BD17E
:102BC000714B1B6875490722180009F06EFC031E43
:102BD00002D1FFF7B1FDD2E06A4B1B78072B0BD176
:102BE000694B1B686E490722180009F05EFC031E42
:102BF00002D1FFF7C9FDC2E0624B1B78072B0BD156
:102C0000614B1B6867490722180009F04EFC031E40
:102C100002D1FFF7E1FDB2E05A4B1B78072B0BD135
:102C2000594B1B6860490722180009F03EFC031E3F
:102C300002D1FFF7F9FDA2E0524B1B780A2B0FD10E
:102C4000514B1B6859490722180009F02EFC031E3E
:102C500006D14D4B1B6807331800FFF70DFE8EE0C1
:102C6000484B1B78062B0BD1474B1B68504906225B
:102C7000180009F01AFC031E02D1FFF769FE7EE07E
:102C8000404B1B78072B0BD13F4B1B684949072250
:102C9000180009F00AFC031E02D1FFF781FE6EE066
:102CA000384B1B780A2B0BD1374B1B6842490A2241
:102CB000180009F0FAFB031E02D1FFF7A1FE5EE047
:102CC000304B1B78112B0FD12F4B1B683B490B222C
:102CD000180009F0EAFB031E06D12B4B1B680B33CF
:102CE0001800FFF7A9FE4AE0264B1B78092B0BD1F1
:102CF000254B1B6832490922180009F0D6FB031E38
:102D000002D1FFF7D3FE3AE01E4B1B78102B0FD1F8
:102D10001D4B1B682B490A22180009F0C6FB031E35
:102D200006D1194B1B680A331800FFF7DBFE26E0BB
:102D3000144B1B780C2B0BD1134B1B6822490C2214
:102D4000180009F0B2FB031E02D1FFF783FE16E064
:102D50000C4B1B78152B0FD10B4B1B681B490D22FD
:102D6000180009F0A2FB031E06D1074B1B680D33A8
:102D70001800FFF78BFE02E0FFF762FCC046C0467A
:102D8000BD4680BDFC000020F8000020F4C400080F
:102D9000FCC4000808C5000818C5000828C50008BC
:102DA00030C5000838C5000840C5000848C50008FF
:102DB00050C5000858C5000860C500086CC500086B
:102DC00078C5000884C5000890C50008A0C50008A3
:102DD00080B584B000AF78607B68180001F0E6F839
:102DE00002002D4B1A602C4B1B681800FDF764FE87
:102DF000031C2A49181CFDF751FA031C2849181C0A
:102E0000FDF758FB031C2749181CFDF76DFC031C3C
:102E1000FB602449F868FDF741FA031C2249181C9D
:102E2000FDF748FB031C181CFDF702FA02001A4BC1
:102E30001A601E4B1B78002B11D1174B1B681B0C03
:102E4000DAB21B4B1A70144B1B681B0ADAB2184B10
:102E50005A70114B1B68DAB2154B9A7014E0134B81
:102E60001B78012B10D10C4B1B681B0CDAB2104BDA
:102E7000DA70094B1B681B0ADAB20D4B1A71064B4C
:102E80001B68DAB20A4B5A710A4B01221A70C0460B
:102E9000BD4604B080BDC046A401002000F07F45BF
:102EA0003D0A47407B141E400400004A00000020F9
:102EB0002C0400200100002080B582B000AFFB1D73
:102EC00000221A70264B1B78002B43D0254B1B7811
:102ED000002B0FD1244B00221A70224B01221A70B2
:102EE000224B00221A70FFF707FB214B180000F05D
:102EF000A1FF2FE01B4B1B78012B18D11B4B1B781C
:102F0000DBB2002B26D01A4B180001F005F8164B47
:102F100001221A70134B02221A70144B00221A70ED
:102F2000FFF70EFB124B180000F084FF12E00D4B70
:102F30001B78022B0ED10D4B1B78DBB2002B09D076
:102F4000FB1D01221A70074B00221A70084B180053
:102F500000F0E2FFFB1D1B781800BD4602B080BDEB
:102F6000F4000020A8010020000000200100002043
:102F70003404002080B582B000AF00237B6000F0F5
:102F8000FFF80D4B0021180001F098FC0B4B0122BB
:102F90000221180002F075F8094B01221A70094B42
:102FA0007B607B6804480022002101F024FCC046BD
:102FB000BD4602B080BDC046D003002000040048DA
:102FC000F4000020AC0C000080B500AF00F06AFDFA
:102FD00000F034F800F05AF908F0DEFC00F0FEF8DA
:102FE00000F088F8FFF7D0FAFFF7C4FF0C4B1B780E
:102FF000012BFBD10A4B00221A700A4B1A780A4B9C
:103000001A700A4B0A4A1A60FFF794FD094B1B78A5
:103010009AB2094B1100180008F04EFDE6E7C046D1
:10302000AA010020AC010020FC000020F8000020D4
:103030005C070020800100200001002090B599B0BD
:1030400000AF2C243B19180034231A00002109F08A
:103050001CFA1C23FB18180010231A00002109F089
:1030600014FA3B0018001C231A00002109F00DFA85
:1030700021007B1830221A607B1801221A627B180B
:1030800001225A617B1810229A617B1800225A6231
:103090007B18180003F084FE031E01D000F094F9A1
:1030A0001C217B1807221A607B1803225A607B18A8
:1030B00000229A607B180022DA607B180121180038
:1030C00004F0F4F9031E01D000F07EF93B008022E9
:1030D00092021A603B0000229A613B00180004F043
:1030E0003FFB031E01D000F06FF9C046BD4619B08A
:1030F00090BD000080B584B000AF3B1D18000C23CC
:103100001A00002109F0C1F91B4B1C4A1A601A4B26
:1031100000225A60184B00229A60174B0022DA6096
:10312000154B01221A61144B04225A61124B0022E2
:103130001A76114B00225A760F4B00229A760E4BCC
:103140000022DA760C4BC222FF32DA610A4B0022EF
:103150001A62094B242200219954074B01229A62DA
:10316000054B180000F026FD031E01D000F02CF9DD
:10317000C046BD4604B080BD340400200024014098
:1031800080B582B000AF3B00180008231A00002170
:1031900009F07BF90F4B104A1A600E4B180001F032
:1031A00007FB031E01D000F00FF93B0000221A605C
:1031B0003B0000225A603900064B0022180001F043
:1031C0003DFB031E01D000F0FFF8C046BD4602B033
:1031D00080BDC046D00300200074004080B586B09A
:1031E00000AF0823FB18180010231A00002109F073
:1031F0004CF93B00180008231A00002109F045F99A
:103200001F4B204A1A601E4B00225A601C4B0022A2
:103210009A601B4B1C4ADA60194B00221A61184B4A
:1032200000225A61164B00229A61154B180004F0D7
:1032300095FB031E01D000F0C7F808217B188022FF
:1032400052011A607A180E4B1100180004F020FC8D
:10325000031E01D000F0B8F83B0000221A603B00CA
:1032600000225A603A00064B1100180004F0FEFDDF
:10327000031E01D000F0A8F8C046BD4606B080BDD0
:10328000E4030020002C0140FEFF000090B589B04F
:1032900000AF0C243B19180014231A00002109F078
:1032A000F4F8454B5A69444B8021C9030A435A61DB
:1032B000414B5A698023DB031340BB60BB683E4B24
:1032C0005A693D4B802189020A435A613A4B5A6937
:1032D00080239B0213407B607B68374B5A69364BD7
:1032E0008021C9020A435A61334B5A698023DB02A9
:1032F00013403B603B689023DB050122032118004B
:1033000001F0BFFE9023DB0500223021180001F000
:10331000B8FE2A492A4B0022180001F0B2FE3B19E0
:1033200033221A603B1901225A603B1900229A602D
:103330003B190022DA603A199023DB0511001800CE
:1033400001F00AFD3B190C221A603B1900225A6059
:103350003B1901229A603A199023DB0511001800ED
:1033600001F0FAFC3B19174A1A603B1901225A6016
:103370003B1900229A603B190022DA603B19104A7F
:103380001900100001F0E8FC21007B1802221A60ED
:103390007B1801225A607B1802229A607B18002257
:1033A000DA607B18064A1900100001F0D5FCC0460F
:1033B000BD4609B090BDC04600100240073C000069
:1033C00000040048053C000080B500AFC046BD4683
:1033D00080BD80B500AF9023DB05012201211800DC
:1033E00001F04FFE9023DB0501220221180001F0BD
:1033F00048FE9023DB0501211800FFF733F89023E6
:10340000DB0502211800FFF72DF89023DB052021B2
:103410001800FFF727F89023DB0500222021180071
:1034200001F02FFEC046BD4680BD000080B500AF54
:103430009023DB0500220121180001F022FE00F09C
:10344000D3F99023DB0501222021180001F019FE99
:10345000FA231B01180000F0D1F92D4B180000F0E1
:10346000CDF92B4B180000F0C9F99023DB050022A1
:103470002021180001F005FEAF239B00180000F08A
:10348000BDF99023DB0501222021180001F0F9FD90
:10349000204B180000F0B2F91F4B180000F0AEF9F5
:1034A0001D4B180000F0AAF99023DB050022202113
:1034B000180001F0E6FDAF239B00180000F09EF914
:1034C0009023DB0501222021180001F0DAFD134BC7
:1034D000180000F093F9114B180000F08FF9104B11
:1034E000180000F08BF99023DB0500222021180042
:1034F00001F0C7FD00F078F99023DB0501220121DE
:10350000180001F0BEFD00F06FF9C046BD4680BD59
:10351000941100008813000010270000204E0000C6
:10352000B80B000090B583B000AF04000800110094
:10353000FB1D221C1A70BB1D021C1A707B1D0A1C6D
:103540001A709023DB0500220121180001F099FD7B
:1035500000F04AF99023DB0510211800FEF782FFE6
:10356000FB1D1B782033DBB2180000F0FCF8BB1DFC
:103570001B78180000F0F7F87B1D1B78180000F08E
:10358000F2F89023DB0510211800FEF792FF90233C
:10359000DB0501220121180001F073FD00F024F980
:1035A000C046BD4603B090BDB0B582B000AF0500C7
:1035B0000C0010001900FB1D2A1C1A70BB1D221CD8
:1035C0001A707B1D021C1A703B1D0A1C1A70902376
:1035D000DB0500220121180001F053FD00F004F981
:1035E0009023DB0510211800FEF73CFFFB1D1B7824
:1035F0004033DBB2180000F0B6F8BB1D1B78180092
:1036000000F0B1F87B1D1B78180000F0ACF83B1DF2
:103610001B78180000F0A7F89023DB051021180094
:10362000FEF747FF9023DB0501220121180001F07E
:1036300028FD00F0D9F8C046BD4602B0B0BD90B537
:1036400085B000AFB9607A603B600F243B19021C63
:103650001A709023DB0500220121180001F011FDF2
:1036600000F0C2F89023DB0510211800FEF7FAFEE7
:103670003B191B78403BDBB2180000F074F8902334
:10368000DB0510211800FEF714FF00F0ADF800F084
:1036900037F803001A00BB681A7000F031F8030015
:1036A0001A007B681A7000F02BF803001A003B68C0
:1036B0001A709023DB0501220121180001F0E1FCC2
:1036C00000F092F8C046BD4605B090BD80B500AF91
:1036D000A02220210420FFF725FF002300228021C3
:1036E0000020FFF761FFC046BD4680BD80B500AF3A
:1036F000A12220210420FFF715FFC046BD4680BD52
:1037000080B582B000AFFB1D00221A70BB1D0822DD
:103710001A7000F052F8FA1DFB1D1B78DB181370AD
:10372000FB1DFA1D127801218A431A709023DB05D4
:103730001021180001F088FC031E05D0FB1DFA1DA6
:10374000127801210A431A70BB1DBA1D1278013A82
:103750001A70BB1D1B78002BDBD1FB1D1B781800DA
:10376000BD4602B080BD80B584B000AF0200FB1D35
:103770001A700F23FB1808221A70FB1D1B78DB0937
:10378000DAB29023DB051021180001F07AFC00F07A
:1037900014F8FA1DFB1D1B78DB1813700F217B1822
:1037A0007A181278013A1A707B181B78002BE4D132
:1037B000C046C046BD4604B080BD80B500AF902372
:1037C000DB0501222021180001F05BFC00F00CF861
:1037D0009023DB0500222021180001F052FC00F0AC
:1037E00003F8C046BD4680BD80B500AFAF239B0047
:1037F000180000F003F8C046BD4680BD80B582B019
:1038000000AF0200BB1D1A80084B1B6800225A62E1
:10381000C046064B1B685A6ABB1D1B889A42F8D3E8
:10382000C046C046BD4602B080BDC046E40300208D
:1038300080B582B000AF0F4B9A690E4B01210A434D
:103840009A610C4B9B69012213407B607B68094B9A
:10385000DA69084B802149050A43DA61054BDA69C8
:1038600080235B0513403B603B68C046BD4602B009
:1038700080BDC0460010024090B58BB000AF7860AC
:1038800014243B19180014231A00002108F0FDFD30
:103890007B681B681D4A934233D11D4B9A691C4BB0
:1038A000802189000A439A61194B9A6980239B0001
:1038B00013403B613B69164B5A69154B80218902C5
:1038C0000A435A61124B5A6980239B021340FB60E2
:1038D000FB683B19C0221A603B1903225A603B194E
:1038E00000229A603A199023DB051100180001F0BC
:1038F00033FA002200210C2000F028FF0C2000F0F9
:103900003AFFC046BD460BB090BDC0460024014002
:103910000010024090B58BB000AF786014243B19C2
:10392000180014231A00002108F0AFFD7B681B6803
:10393000194A93422BD1194BDA69184B802189051A
:103940000A43DA61154BDA6980239B0513403B611A
:103950003B69124B5A69114B802189020A435A6113
:103960000E4B5A6980239B021340FB60FB683B1996
:1039700010221A603B1903225A603B1900229A60F8
:103980003A199023DB051100180001F0E5F9C04653
:10399000BD460BB090BDC046007400400010024010
:1039A00080B584B000AF78607B681B680A4A934298
:1039B0000DD10A4B9A69094B802109010A439A618A
:1039C000064B9A6980231B011340FB60FB68C046CD
:1039D000BD4604B080BDC046002C0140001002402E
:1039E00080B500AFC046BD4680BD80B500AFFEE7E4
:1039F00080B500AFC046BD4680BD80B500AFC046B3
:103A0000BD4680BD80B500AF00F094F8C046BD460D
:103A100080BD000080B500AF034B180000F0D2FA63
:103A2000C046BD4680BDC0463404002080B500AF0E
:103A3000034B180001F078FCC046BD4680BDC0466F
:103A40002C11002080B500AFC046BD4680BD0000EF
:103A50000D4885460D480E490E4A002302E0D45811
:103A6000C4500433C4188C42F9D30B4A0B4C0023C6
:103A700001E013600432A242FBD3FFF7E3FF08F03A
:103A8000D7FCFFF7A1FAFEE700400020000000206D
:103A9000D400002054C80008D800002020140020C2
:103AA000FEE7000080B500AF074B1A68064B1021F7
:103AB0000A431A60002000F009F8FFF7B9FE00235E
:103AC0001800BD4680BDC0460020024090B583B0BE
:103AD00000AF7860144B1C68144B1B781900FA2354
:103AE0009800FCF719FB030019002000FCF714FBF9
:103AF0000300180000F04FFE031E01D001230FE069
:103B00007B68032B0BD8796801235B4200221800E5
:103B100000F01CFE064B7A681A60002300E00123C7
:103B20001800BD4603B090BD040000200C0000202A
:103B30000800002080B500AF054B1B781A00054B2C
:103B40001B68D218034B1A60C046BD4680BDC046F4
:103B50000C0000207404002080B500AF024B1B68ED
:103B60001800BD4680BDC0467404002080B584B0F6
:103B700000AF7860FFF7F0FF0300BB607B68FB607D
:103B8000FB68013305D00A4B1B781A00FB689B18B1
:103B9000FB60C046FFF7E0FF0200BB68D31AFA687B
:103BA0009A42F7D8C046C046BD4604B080BDC04664
:103BB0000C00002080B584B000AF78600F23FB18A4
:103BC00000221A700023BB607B68002B01D1012307
:103BD00025E17B689B6B002B0AD17B680022DA63AE
:103BE0007B683422002199547B681800FFF744FE5B
:103BF0007B689B6B1022134000D003E10F23FB185E
:103C00001B78002B00D0FDE07B681B689B680422BA
:103C1000134000D0F6E07B689B6B834A134002227E
:103C20001A437B689A637B681B689B680322134076
:103C3000012B12D17B681B681B6801221340012BEA
:103C400009D07B681B68DA6880231B021A40802336
:103C50001B029A4201D1012300E00023002B16D160
:103C60007B681B68DB681822934319007B689A689D
:103C70007B681B680A43DA607B681B681B699B00D2
:103C800099087B685A687B681B680A431A617B68DD
:103C90001B68DA687B681B6864490A40DA607B68E5
:103CA0001B7E9A037B685B7EDB031A437B689B7EEB
:103CB0005B031A437B689B6A012B02D080235B0164
:103CC00000E000231A437B68DB681A437B681B69AA
:103CD000022B01D1042300E000231A437B68242136
:103CE0005B5C5B001343BA681343BB607B68DB7E9D
:103CF000012B15D17B689B7E002B05D1BB688022F0
:103D000052021343BB600BE07B689B6B20221A437B
:103D10007B689A637B68DB6B01221A437B68DA63FA
:103D20007B68DA69C223FF339A4207D07B68DA697D
:103D30007B681B6A1343BA681343BB607B681B68CC
:103D4000D9687B681B68BA680A43DA607B68DA6AFC
:103D500080235B059A421BD07B68DB6A012B17D05E
:103D60007B68DB6A022B13D07B68DB6A032B0FD0E6
:103D70007B68DB6A042B0BD07B68DB6A052B07D0E2
:103D80007B68DB6A062B03D07B68DB6A072B12D1CA
:103D90007B681B685A697B681B6807218A435A61E4
:103DA0007B681B6859697B68DB6A07221A407B685D
:103DB0001B680A435A617B681B68DB681C4A134016
:103DC000BA689A420BD17B680022DA637B689B6BEE
:103DD0000322934301221A437B689A631CE07B68A9
:103DE0009B6B1222934310221A437B689A637B6871
:103DF000DB6B01221A437B68DA630F23FB18012275
:103E00001A7009E07B689B6B10221A437B689A63E7
:103E10000F23FB1801221A700F23FB181B781800C0
:103E2000BD4604B080BDC046FDFEFFFF1902FEFF87
:103E3000E7FF3F8390B585B000AF78600F23FB1894
:103E400000221A707B681B689B680422134056D1BD
:103E50007B6834229B5C012B01D1022356E07B68F6
:103E60003422012199547B685B7E012B07D00F23FC
:103E7000FC187B68180000F07BFA030023700F2306
:103E8000FB181B78002B3ED17B689B6B214A1340AB
:103E9000802252001A437B689A637B680022DA63AF
:103EA0007B683422002199547B681B681C221A60AD
:103EB0007B685B69082B10D17B681B685A687B683C
:103EC0001B6804218A435A607B681B685A687B68B8
:103ED0001B6818210A435A6008E07B681B685A680F
:103EE0007B681B681C210A435A60C0467B681B68BC
:103EF0009A687B681B6804210A439A6003E00F23D9
:103F0000FB1802221A700F23FB181B781800BD46FD
:103F100005B090BDFEF0FFFFB0B584B000AF786093
:103F20000F23FB1800221A707B6834229B5C012B44
:103F300001D1022333E07B683422012199540F25FB
:103F40007C197B68180000F008FB03002370280030
:103F50003B181B78002B1BD17B681B685A687B6859
:103F60001B681C218A435A6005003C187B681800B6
:103F700000F082FA030023707B191B78002B07D115
:103F80007B689B6B084A134001221A437B689A6343
:103F90007B683422002199540F23FB181B781800EA
:103FA000BD4604B0B0BDC046FEFEFFFF80B582B086
:103FB00000AF78607B681B681B6C1800BD4602B0C0
:103FC00080BD000080B582B000AF78607B681B6860
:103FD0001B6804221340042B06D17B681B685B68B6
:103FE00004221340042B0DD07B681B681B68082239
:103FF0001340082B4FD17B681B685B680822134075
:10400000082B48D17B689B6B1022134006D17B683C
:104010009B6B802292001A437B689A637B681B68C3
:10402000DA68C0231B0113402DD17B689B7E002BD7
:1040300029D17B681B681B6808221340082B22D1FA
:104040007B681B689B680422134010D17B681B6847
:104050005A687B681B680C218A435A607B689B6B9B
:10406000334A134001221A437B689A630BE07B6852
:104070009B6B20221A437B689A637B68DB6B01226F
:104080001A437B68DA637B681800FEF7A1FE7B6841
:104090001B680C221A607B681B681B688022134017
:1040A000802B15D17B681B685B6880221340802BB6
:1040B0000ED17B689B6B802252021A437B689A6305
:1040C0007B68180000F036F87B681B6880221A6055
:1040D0007B681B681B6810221340102B23D17B6860
:1040E0001B685B6810221340102B1CD17B689B6AF5
:1040F000012B06D07B681B68DB6801221340012B73
:104100000DD17B68DB6B02221A437B68DA637B6824
:104110001B6810221A607B68180000F013F87B6897
:104120001B6810221A60C046BD4602B080BDC04662
:10413000FEFEFFFF80B582B000AF7860C046BD468E
:1041400002B080BD80B582B000AF7860C046BD4689
:1041500002B080BD80B584B000AF786039600F23B5
:10416000FB1800221A700023BB607B68DA6A802388
:104170005B059A4211D07B68DB6A012B0DD07B680E
:10418000DB6A022B09D07B68DB6A032B05D07B68D6
:10419000DB6A042B01D07B68DB6A7B6834229B5C82
:1041A000012B01D10223D0E07B68342201219954F4
:1041B0007B681B689B680422134000D0B4E03B6816
:1041C0005B68644A934200D182E07B681B68996A0D
:1041D0003B681B6801229A407B681B680A439A620D
:1041E0007B68DA6A80235B059A4237D07B68DB6A9A
:1041F000012B33D07B68DB6A022B2FD07B68DB6A14
:10420000032B2BD07B68DB6A042B27D07B68DB6A0F
:10421000052B23D07B68DB6A062B1FD07B68DB6A0B
:10422000072B1BD03B689A687B681B685B6907217A
:104230000B409A4212D07B681B685A697B681B68E6
:1042400007218A435A617B681B6859693B689B68F0
:1042500007221A407B681B680A435A613B681B6847
:10426000102B07D03B681B68112B03D03B681B68E1
:10427000122B63D1384B19683B681B68102B09D08F
:104280003B681B68112B02D18023DB0304E08023F1
:104290005B0401E080231B042F4A0B4313603B683F
:1042A0001B68102B4AD12D4B1B682D491800FBF7BA
:1042B00033FF03001A0013009B009B185B00BB60D8
:1042C00002E0BB68013BBB60BB68002BF9D135E065
:1042D0007B681B689A6A3B681B68012199400B0048
:1042E000D9437B681B680A409A623B681B68102BA5
:1042F00007D03B681B68112B03D03B681B68122B4F
:104300001CD1154B19683B681B68102B07D03B6804
:104310001B68112B01D1134B02E0134B00E0134B30
:104320000D4A0B40136009E07B689B6B20221A4307
:104330007B689A630F23FB1801221A707B68342272
:10434000002199540F23FB181B781800BD4604B0B8
:1043500080BDC04601100000082701400400002075
:1043600040420F00FFFFBFFFFFFFFFFEFFFF7FFF89
:1043700080B584B000AF78600023FB600023BB6091
:104380007B681B689B6803221340012B12D17B685A
:104390001B681B6801221340012B09D07B681B6836
:1043A000DA6880231B021A4080231B029A4201D143
:1043B000012300E00023002B52D17B681B689B681F
:1043C0002A4A13400DD07B689B6B10221A437B68EE
:1043D0009A637B68DB6B01221A437B68DA630123F3
:1043E0003FE07B681B689A687B681B6801210A4371
:1043F0009A601F4B1B681F491800FBF78DFE0300D6
:10440000BB6002E0BB68013BBB60BB68002BF9D11D
:10441000FFF7A2FB0300FB601BE0FFF79DFB020020
:10442000FB68D31A022B14D97B681B681B68012216
:104430001340012B0DD07B689B6B10221A437B68C5
:104440009A637B68DB6B01221A437B68DA63012382
:1044500007E07B681B681B6801221340012BDCD13D
:1044600000231800BD4604B080BDC0461700008080
:104470000400002040420F0080B584B000AF786097
:104480000023FB607B681B689B6803221340012BA1
:1044900012D17B681B681B6801221340012B09D0D5
:1044A0007B681B68DA6880231B021A4080231B028A
:1044B0009A4201D1012300E00023002B48D07B6801
:1044C0001B689B6805221340012B10D17B681B6879
:1044D0009A687B681B6802210A439A607B681B68A4
:1044E00003221A60FFF738FB0300FB6029E07B68BA
:1044F0009B6B10221A437B689A637B68DB6B0122FB
:104500001A437B68DA63012323E0FFF725FB0200EF
:10451000FB68D31A022B14D97B681B689B680122A5
:104520001340012B0DD17B689B6B10221A437B68D3
:104530009A637B68DB6B01221A437B68DA63012391
:1045400007E07B681B689B6801221340012BDCD0CD
:1045500000231800BD4604B080BD80B584B000AF14
:1045600078600023FB607B681B689B680422134013
:104570003AD07B681B689B6804221340042B0DD142
:104580007B681B689B680222134007D17B681B680D
:104590009A687B681B6810210A439A60FFF7DCFA6F
:1045A0000300FB601AE0FFF7D7FA0200FB68D31A9A
:1045B000022B13D97B681B689B68042213400DD023
:1045C0007B689B6B10221A437B689A637B68DB6B6A
:1045D00001221A437B68DA63012306E07B681B68CB
:1045E0009B6804221340DED100231800BD4604B0AE
:1045F00080BD000080B582B000AF0200FB1D1A70C4
:10460000FB1D1B787F2B09D8FB1D1B781A001F236D
:104610001A40044B012191400A001A60C046BD4671
:1046200002B080BD00E100E090B583B000AF0200B1
:104630003960FB1D1A70FB1D1B787F2B28D82F4A71
:10464000FB1D1B785BB29B08C0339B009B58FA1D77
:104650001278110003220A40D200FF2191400A0083
:10466000D2431A4011003B689B01FF221A40FB1DF8
:104670001B78180003230340DB009A401F48FB1DF2
:104680001B785BB29B080A43C0339B001A5031E091
:104690001B4AFB1D1B7819000F230B40083B9B088E
:1046A00006339B00D31804331B68FA1D12781100DF
:1046B00003220A40D200FF2191400A00D2431A404F
:1046C00011003B689B01FF221A40FB1D1B7818005C
:1046D00003230340DB009A400948FB1D1B781C00A4
:1046E0000F232340083B9B080A4306339B00C31853
:1046F00004331A60C046BD4603B090BD00E100E03F
:1047000000ED00E080B582B000AF78607B685A1E93
:1047100080235B049A4201D3012310E00A4B7A689C
:10472000013A5A6001235B4203211800FFF77CFF26
:10473000054B00229A60044B07221A6000231800E0
:10474000BD4602B080BDC04610E000E080B584B038
:1047500000AFB9607A600F217B18021C1A70BA682A
:104760007B181B785BB211001800FFF75DFFC04695
:10477000BD4604B080BD80B582B000AF0200FB1D15
:104780001A70FB1D1B785BB21800FFF733FFC046A1
:10479000BD4602B080BD80B582B000AF78607B6856
:1047A0001800FFF7AFFF03001800BD4602B080BD40
:1047B00080B582B000AF78607B68002B01D1012307
:1047C00015E07B681B79DBB2002B06D17B680022E9
:1047D0005A717B681800FFF79DF87B6802221A71F6
:1047E0007B6800221A617B6801221A71002318007D
:1047F000BD4602B080BD80B586B000AFF860B9603C
:104800007A603B6000237B61FB681B687B61BB684F
:10481000002B05D17A697B68D31808337B6104E0EB
:104820007A697B68D31814337B617B693A681A60B4
:1048300000231800BD4606B080BD000080B586B0DC
:1048400000AFF860B9607A6000237B6100233B61B0
:10485000FB685B79012B01D1022329E0FB6801226F
:104860005A71FB6802221A71FB681B681B687B6126
:10487000114A7B689A401300DA437B6913407B61DD
:10488000BB681A68BB685B6813433B613A697B6825
:104890009A4013007A6913437B61FB681B687A694D
:1048A0001A60FB6801221A71FB6800225A7100230A
:1048B0001800BD4606B080BDFE0F000080B582B076
:1048C00000AF786039607B685B79012B01D10223EE
:1048D0003BE07B6801225A717B6802221A717B6877
:1048E0001B68196801223B689A407B681B680A4371
:1048F0001A603B68002B0FD17B681B681B683C2249
:1049000013403C2B1AD17B681B685A687B681B6874
:1049100001210A435A6011E07B681B681A68F02382
:104920009B031A40F0239B039A4207D17B681B68C4
:104930005A687B681B6802210A435A607B6801221F
:104940001A717B6800225A7100231800BD4602B01C
:1049500080BD0000F0B587B000AFF860B9603A6084
:104960007B601723FB1801221A701623FB18002204
:104970001A701523FB1800221A703E4B1B7E012B68
:1049800001D1022372E03B4B01221A761723FE1855
:10499000394B180000F0C4F8030033701723FB18DC
:1049A0001B78002B5CD1FB68012B04D11523FB186D
:1049B00001221A700BE0FB68022B04D11523FB18AF
:1049C00002221A7003E01523FB1804221A70162322
:1049D000FB1800221A7039E016217B181B785A0048
:1049E000BB68D0187B181B781B011A00203A002ADC
:1049F00003DB7968D1400C0008E02022D21A7968E4
:104A000091400A003968D9400C0014437A68DA40B2
:104A10001500A3B2190000F067F81723FE18164B13
:104A2000180000F07DF803003370144B1A69134B23
:104A300001218A431A611723FB181B78002B0ED122
:104A400016217B181A787B1801321A701623FA186F
:104A50001523FB1812781B789A42BDD300E0C0469C
:104A6000044B00221A761723FB181B781800BD464A
:104A700007B0F0BD7804002050C3000000200240C1
:104A800080B582B000AFFB1D00221A700C4B1B6971
:104A9000802213400DD00A4B0A4A5A60084B0A4A3A
:104AA0005A60074B1B698022134002D0FB1D012274
:104AB0001A70FB1D1B781800BD4602B080BDC046B1
:104AC0000020024023016745AB89EFCD80B500AFE0
:104AD000044B1A69034B80210A431A610023180012
:104AE000BD4680BD0020024080B582B000AF786036
:104AF0000A00BB1C1A80084B0022DA61074B1A69B6
:104B0000064B01210A431A617B68BA1C12881A807D
:104B1000C046BD4602B080BD78040020002002409F
:104B200080B584B000AF7860FFF716F80300FB6033
:104B30000FE07B6801330CD07B68002B07D0FFF7B8
:104B40000BF80200FB68D31A7A689A4201D2032359
:104B50001FE0124BDB6801221340012BE9D00F4B01
:104B6000DB6820221340202B02D10C4B2022DA607C
:104B70000A4BDB6810221340102B05D0074BDB6873
:104B800004221340042B03D100F00AF8012300E0B3
:104B900000231800BD4604B080BDC046002002407E
:104BA00080B582B000AF00237B60134BDB6810221E
:104BB0001340102B09D1114BDB6902221A430F4B12
:104BC000DA617B68102213437B600B4BDB680422A5
:104BD0001340042B09D1094BDB6901221A43074B0F
:104BE000DA617B68042213437B60034B7A68DA60E6
:104BF000C046BD4602B080BD0020024078040020BF
:104C0000B0B584B000AF786039600F23FB18012283
:104C10001A700023BB60324B1B7E012B01D1022393
:104C20005AE02F4B01221A767B681B68012B16D1A4
:104C30002C4B1800FFF774FF031E47D100F056F805
:104C40000F23FC18274B1800FFF76AFF030023709F
:104C5000254B1A69244B04218A431A6136E0214B03
:104C60001800FFF75DFF031E30D13B68012252425E
:104C70001A607B685B68BB601FE0BB68180000F0CF
:104C80004DF80F257C19174B1800FFF749FF03005B
:104C90002370154B1A69144B02218A431A617B1940
:104CA0001B78002B03D03B68BA681A600EE0BB6823
:104CB0008022120194466344BB607B689B68DA02E1
:104CC0007B685B68D318BA689A42D6D3044B00223B
:104CD0001A760F23FB181B781800BD4604B0B0BD30
:104CE0007804002050C300000020024080B500AFCF
:104CF000084B0022DA61084B1A69074B04210A436A
:104D00001A61054B1A69044B40210A431A61C046D7
:104D1000BD4680BD780400200020024080B582B0EE
:104D200000AF78600A4B0022DA610A4B1A69094B1E
:104D300002210A431A61074B7A685A61054B1A69C6
:104D4000044B40210A431A61C046BD4602B080BDF3
:104D5000780400200020024080B586B000AF786063
:104D6000396000237B6155E13B681B6801217A694A
:104D700091400A001340FB60FB68002B00D146E124
:104D80003B685B6803221340012B05D03B685B68DE
:104D900003221340022B30D17B689B683B617B6907
:104DA0005B0003229A401300DA433B6913403B61E6
:104DB0003B68DA687B695B009A4013003A691343E9
:104DC0003B617B683A699A607B685B683B61012262
:104DD0007B699A401300DA433B6913403B613B68AF
:104DE0005B681B0901221A407B699A4013003A69EB
:104DF00013433B617B683A695A603B685B680322F6
:104E00001340032B17D07B68DB683B617B695B0039
:104E100003229A401300DA433B6913403B613B682D
:104E20009A687B695B009A4013003A6913433B61BF
:104E30007B683A69DA603B685B6803221340022BA7
:104E400023D17B69DA087B6808329200D3583B6132
:104E50007B69072213409B000F229A401300DA431C
:104E60003B6913403B613B681A697B6907210B4032
:104E70009B009A4013003A6913433B617B69DA084F
:104E80007B68083292003969D1507B681B683B61AE
:104E90007B695B0003229A401300DA433B691340AD
:104EA0003B613B685B6803221A407B695B009A4068
:104EB00013003A6913433B617B683A691A603B68A7
:104EC0005A68C0239B02134000D1A0E0574B9A6957
:104ED000564B01210A439A61544B9B6901221340AE
:104EE000BB60BB68524A7B699B0802339B009B589E
:104EF0003B617B69032213409B000F229A40130001
:104F0000DA433B6913403B617A689023DB059A42A0
:104F100019D07B68474A934213D07B68464A934234
:104F20000DD07B68454A934207D07B68444A934240
:104F300001D1042308E0052306E0032304E0022353
:104F400002E0012300E000237A6903210A40920075
:104F500093403A6913433B6135497B699B080233AF
:104F60009B003A695A50374B1B683B61FB68DA4338
:104F70003B6913403B613B685A6880235B021340E6
:104F800003D03A69FB6813433B612E4B3A691A60C0
:104F90002C4B5B683B61FB68DA433B6913403B6128
:104FA0003B685A6880239B02134003D03A69FB6830
:104FB00013433B61234B3A695A60224B9B683B6128
:104FC000FB68DA433B6913403B613B685A688023C6
:104FD0005B03134003D03A69FB6813433B61194BF1
:104FE0003A699A60174BDB683B61FB68DA433B69BF
:104FF00013403B613B685A6880239B03134003D0F6
:105000003A69FB6813433B610E4B3A69DA607B698E
:1050100001337B613B681A687B69DA40131E00D05C
:10502000A2E6C046C046BD4606B080BD00100240A4
:10503000000001400004004800080048000C00483F
:10504000001000480004014080B584B000AF7860D3
:105050000A00BB1C1A807B681B69BA1C12881340AB
:1050600004D00F23FB1801221A7003E00F23FB1852
:1050700000221A700F23FB181B781800BD4604B0DD
:1050800080BD80B582B000AF786008001100BB1C05
:10509000021C1A807B1C0A1C1A707B1C1B78002BBC
:1050A00004D0BB1C1A887B689A6103E0BB1C1A8879
:1050B0007B689A62C046BD4602B080BDF0B58BB039
:1050C00006AF78607B68002B01D10123FFE07B688D
:1050D000814A9B5CDBB2002B08D17A68AA239B0033
:1050E0000021D1547B68180006F044FE7B687A4AA0
:1050F000032199547B681B68180002F02BFF0F23D3
:10510000FB1800221A7058E00F203B181B787968B2
:105110005A1C13009B009B18DB00CB1801330122A3
:105120001A703B181B7879685A1C13009B009B1857
:10513000DB003A1812785A5404003B181A783B19CD
:105140001B7898B2796813009B009B18DB00CB1882
:105150003633021C1A803B191B7879685A1C1300DD
:105160009B009B18DB00CB18033300221A703B19FD
:105170001A78796813009B009B18DB00CB18383332
:1051800000221A603B191A78796813009B009B185B
:10519000DB00CB183C3300221A603B191A7879687F
:1051A00013009B009B18DB00CB18403300221A60D1
:1051B0003B191A783B1901321A700F217B181A78A3
:1051C0007B685B689A429FD37B1800221A7056E076
:1051D0000F243B191A7878686A23FF3319001300EB
:1051E0009B009B18DB00C3185B1800221A703B1948
:1051F0001A787868B423590013009B009B18DB00D1
:10520000C3185B183A1912781A703B191A78786823
:105210006C23FF33190013009B009B18DB00C3189D
:105220005B1800221A703B191A787868BC23590061
:1052300013009B009B18DB00C3185B1800221A6048
:105240003B191A787868BE23590013009B009B18FD
:10525000DB00C3185B1800221A603B191A787868C3
:10526000C023590013009B009B18DB00C3185B1878
:1052700000221A603B191A783B1901321A700F2369
:10528000FB181A787B685B689A42A1D37B68186820
:105290007B686A4611001A00103270CA70C130CAA9
:1052A00030C159689A68DB6802F06EFE7B68242280
:1052B000002199547B68084A012199547B68DB6975
:1052C000012B03D17B68180001F034FD0023180086
:1052D000BD4605B0F0BDC046A902000080B582B051
:1052E00000AF78607A68AA239B00D35C012B01D1C0
:1052F000022314E07A68AA239B000121D1547B6821
:105300001B68180002F010FE7B681B68180004F090
:105310006BFD7A68AA239B000021D154002318005A
:10532000BD4602B080BD000080B582B000AF78609D
:105330007B681B68180004F06DFD020080231B02CF
:105340001A4080231B029A4203D17B68180000F0A8
:10535000BBFB7B681B68180004F05CFD0200802327
:10536000DB001A408023DB009A4214D17B681B6863
:1053700044229B5A9AB27B681B68A2490A4091B2A8
:10538000442299527B68180006F07FFD7B6800215B
:10539000180000F045F97B681B68180004F03AFD1E
:1053A00002008023DB011A408023DB019A420BD1EB
:1053B0007B681B6844229B5A9AB27B681B6892499F
:1053C0000A4091B2442299527B681B68180004F08D
:1053D00021FD020080239B011A4080239B019A42F9
:1053E0000BD17B681B6844229B5A9AB27B681B686E
:1053F00086490A4091B2442299527B681B68180082
:1054000004F008FD020080235B011A4080235B0149
:105410009A4237D17B681B6840229B5A9AB27B68BC
:105420001B6804218A4391B2402299527B681B6811
:1054300040229B5A9AB27B681B6808218A4391B22A
:10544000402299527A68B8239B00D35C012B09D182
:105450007A68B8239B000021D1547B680021180092
:1054600001F092FC7B68180006F050FD7B681B6819
:1054700044229B5A9AB27B681B6865490A4091B2E4
:10548000442299527B681B68180004F0C3FC020098
:1054900080231B011A4080231B019A4227D17B687D
:1054A0001B6840229B5A9AB27B681B6808210A43FA
:1054B00091B2402299527B681B6844229B5A9AB24F
:1054C0007B681B6853490A4091B2442299527B6819
:1054D0001B6840229B5A9AB27B681B6804210A43CE
:1054E00091B2402299527B68180006F0F3FC7B6869
:1054F0001B68180004F08EFC030080221340802BF0
:1055000045D17B681B6844229B5A9AB27B681B6812
:1055100080218A4391B2442299527A68B8239B0031
:10552000D35C002B2FD17B681B6840229B5A9AB218
:105530007B681B6804210A4391B2402299527B6820
:105540001B6840229B5A9AB27B681B6808210A4359
:1055500091B2402299527A68B8239B000121D1541C
:105560007B681B6854229B5A9BB29B083C221340C9
:1055700019007A68B9239B00D1507B68012118007B
:1055800001F002FC03E07B68180006F0A3FC7B68D6
:105590001B68180004F03EFC020080239B001A40A8
:1055A00080239B009A420FD17B681B6844229B5A40
:1055B0009AB27B681B6818490A4091B244229952FA
:1055C0007B68180006F052FC7B681B68180004F02A
:1055D00021FC020080235B001A4080235B009A427A
:1055E0000BD17B681B6844229B5A9AB27B681B686C
:1055F0000A490A4091B244229952C046BD4602B0BF
:1056000080BDC046FFFBFFFFFFBFFFFFFFDFFFFFC7
:10561000FFEFFFFFFFF7FFFFFFFDFFFFFFFEFFFFB5
:1056200080B582B000AF78600A00FB1C1A707A68FF
:10563000AA239B00D35C012B01D1022317E07A68D7
:10564000AA239B000121D1547B68FA1C24211278E3
:105650005A547B681A68FB1C1B781900100004F070
:10566000AFFB7A68AA239B000021D15400231800C5
:10567000BD4602B080BD90B585B000AF78600C002B
:1056800010001900FB1C221C1A703B00021C1A801F
:10569000BB1C0A1C1A700B23FB1800221A70FB1C7F
:1056A0001B785BB2002B0FDAFB1C1B780722134020
:1056B0005A1C13009B009B18DB007A68D318FB6010
:1056C000FB6801225A700FE0FB1C1B7807221A406E
:1056D00013009B009B18DB006933FF337A68D318F3
:1056E000FB60FB6800225A70FB1C1B7807221340EA
:1056F000DAB2FB681A703B001A88FB681A61FB6813
:10570000BA1C1278DA70FB685B78002B04D0FB6857
:105710001B789AB2FB68DA81BB1C1B78022B02D182
:10572000FB6800221A717A68AA239B00D35C012BC4
:1057300001D1022313E07A68AA239B000121D154EE
:105740007B681B68FA681100180002F049FC7A684F
:10575000AA239B000021D1540B23FB181B781800AF
:10576000BD4605B090BD80B584B000AF78600A003A
:10577000FB1C1A70FB1C1B785BB2002B0FDAFB1CA6
:105780001B78072213405A1C13009B009B18DB0058
:105790007A68D318FB60FB6801225A700FE0FB1C8B
:1057A0001B7807221A4013009B009B18DB0069330B
:1057B000FF337A68D318FB60FB6800225A70FB1C29
:1057C0001B7807221340DAB2FB681A707A68AA23A2
:1057D0009B00D35C012B01D1022311E07A68AA233C
:1057E0009B000121D1547B681B68FA6811001800E6
:1057F00002F06AFF7A68AA239B000021D15400239B
:105800001800BD4604B080BD80B586B000AFF8601A
:105810007A603B600B203B180A1C1A7001007B1851
:105820001B7807221A4013009B009B18DB0069338A
:10583000FF33FA68D3187B617B697A685A617B69A8
:105840003A689A617B690022DA617B6900225A70AA
:105850007B181B7807221340DAB27B691A707B1819
:105860001B780722134007D1FB681B687A69110077
:10587000180003F0E9F806E0FB681B687A6911007C
:10588000180003F0E1F800231800BD4606B080BD03
:1058900080B582B000AF78600A00FB1C1A70FB1C58
:1058A0001B7807221A407868C223590013009B0016
:1058B0009B18DB00C3185B181B681800BD4602B0BC
:1058C00080BD80B586B000AFF8607A603B600B2089
:1058D0003B180A1C1A703B181B78072213405A1CED
:1058E00013009B009B18DB00FA68D3187B617B696F
:1058F0007A685A617B693A689A617B69242201213E
:1059000099547B693A681A627B690022DA617B6983
:1059100001225A703B181B7807221340DAB27B69C8
:105920001A703B181B780722134007D1FB681B68CD
:105930007A691100180003F087F806E0FB681B681D
:105940007A691100180003F07FF800231800BD46A3
:1059500006B080BD80B584B000AF78600A00FB1C43
:105960001A70FB1C1B7807221A407B685B689A42FE
:1059700001D9012346E0FB1C1B785BB2002B0FDA38
:10598000FB1C1B78072213405A1C13009B009B181A
:10599000DB007A68D318FB60FB6801225A700DE0C7
:1059A000FB1C1A7813009B009B18DB006933FF3344
:1059B0007A68D318FB60FB6800225A70FB680122EA
:1059C0009A70FB1C1B7807221340DAB2FB681A702E
:1059D0007A68AA239B00D35C012B01D1022311E03A
:1059E0007A68AA239B000121D1547B681B68FA685E
:1059F0001100180004F0E2F87A68AA239B00002145
:105A0000D15400231800BD4604B080BD80B584B0D9
:105A100000AF78600A00FB1C1A70FB1C1B780F2279
:105A20001A407B685B689A4201D9012348E0FB1C5D
:105A30001B785BB2002B0FDAFB1C1B78072213408C
:105A40005A1C13009B009B18DB007A68D318FB607C
:105A5000FB6801225A700FE0FB1C1B7807221A40DA
:105A600013009B009B18DB006933FF337A68D3185F
:105A7000FB60FB6800225A70FB6800229A70FB1CD6
:105A80001B7807221340DAB2FB681A707A68AA23DF
:105A90009B00D35C012B01D1022311E07A68AA2379
:105AA0009B000121D1547B681B68FA681100180023
:105AB00004F0D4F87A68AA239B000021D154002373
:105AC0001800BD4604B080BDB0B596B000AF786098
:105AD00000F0D8FB7B681A6856203B184421525AC4
